{
  "contractName": "CharityDonation",
  "abi": [
    {
      "inputs": [],
      "stateMutability": "nonpayable",
      "type": "constructor"
    },
    {
      "inputs": [
        {
          "internalType": "address",
          "name": "",
          "type": "address"
        }
      ],
      "name": "Donors",
      "outputs": [
        {
          "internalType": "bool",
          "name": "",
          "type": "bool"
        }
      ],
      "stateMutability": "view",
      "type": "function",
      "constant": true
    },
    {
      "inputs": [
        {
          "internalType": "address",
          "name": "",
          "type": "address"
        }
      ],
      "name": "charities",
      "outputs": [
        {
          "internalType": "bool",
          "name": "",
          "type": "bool"
        }
      ],
      "stateMutability": "view",
      "type": "function",
      "constant": true
    },
    {
      "inputs": [
        {
          "internalType": "address",
          "name": "",
          "type": "address"
        }
      ],
      "name": "charitiesMatchedAmount",
      "outputs": [
        {
          "internalType": "uint256",
          "name": "",
          "type": "uint256"
        }
      ],
      "stateMutability": "view",
      "type": "function",
      "constant": true
    },
    {
      "inputs": [
        {
          "internalType": "address",
          "name": "",
          "type": "address"
        }
      ],
      "name": "charitiesNames",
      "outputs": [
        {
          "internalType": "string",
          "name": "",
          "type": "string"
        }
      ],
      "stateMutability": "view",
      "type": "function",
      "constant": true
    },
    {
      "inputs": [],
      "name": "contractOwner",
      "outputs": [
        {
          "internalType": "address payable",
          "name": "",
          "type": "address"
        }
      ],
      "stateMutability": "view",
      "type": "function",
      "constant": true
    },
    {
      "inputs": [
        {
          "internalType": "address",
          "name": "",
          "type": "address"
        }
      ],
      "name": "donations",
      "outputs": [
        {
          "internalType": "uint256",
          "name": "",
          "type": "uint256"
        }
      ],
      "stateMutability": "view",
      "type": "function",
      "constant": true
    },
    {
      "inputs": [],
      "name": "numberOfCharities",
      "outputs": [
        {
          "internalType": "uint256",
          "name": "",
          "type": "uint256"
        }
      ],
      "stateMutability": "view",
      "type": "function",
      "constant": true
    },
    {
      "inputs": [],
      "name": "numberOfDonors",
      "outputs": [
        {
          "internalType": "uint256",
          "name": "",
          "type": "uint256"
        }
      ],
      "stateMutability": "view",
      "type": "function",
      "constant": true
    },
    {
      "inputs": [
        {
          "internalType": "address",
          "name": "",
          "type": "address"
        }
      ],
      "name": "totalDonationsByCharity",
      "outputs": [
        {
          "internalType": "uint256",
          "name": "",
          "type": "uint256"
        }
      ],
      "stateMutability": "view",
      "type": "function",
      "constant": true
    },
    {
      "inputs": [
        {
          "internalType": "address",
          "name": "",
          "type": "address"
        }
      ],
      "name": "totalDonationsByDonor",
      "outputs": [
        {
          "internalType": "uint256",
          "name": "",
          "type": "uint256"
        }
      ],
      "stateMutability": "view",
      "type": "function",
      "constant": true
    },
    {
      "inputs": [
        {
          "internalType": "address",
          "name": "newOwner",
          "type": "address"
        }
      ],
      "name": "transferOwnership",
      "outputs": [],
      "stateMutability": "nonpayable",
      "type": "function"
    },
    {
      "inputs": [
        {
          "internalType": "address",
          "name": "_charity",
          "type": "address"
        },
        {
          "internalType": "string",
          "name": "_charityName",
          "type": "string"
        }
      ],
      "name": "addCharity",
      "outputs": [],
      "stateMutability": "nonpayable",
      "type": "function"
    },
    {
      "inputs": [
        {
          "internalType": "address",
          "name": "_charity",
          "type": "address"
        }
      ],
      "name": "donate",
      "outputs": [],
      "stateMutability": "payable",
      "type": "function",
      "payable": true
    },
    {
      "inputs": [],
      "name": "getAllCharitiesAndMatchedAmount",
      "outputs": [
        {
          "internalType": "address[]",
          "name": "",
          "type": "address[]"
        },
        {
          "internalType": "uint256[]",
          "name": "",
          "type": "uint256[]"
        },
        {
          "internalType": "uint256",
          "name": "",
          "type": "uint256"
        }
      ],
      "stateMutability": "view",
      "type": "function",
      "constant": true
    },
    {
      "inputs": [],
      "name": "matchTheDonations",
      "outputs": [],
      "stateMutability": "payable",
      "type": "function",
      "payable": true
    },
    {
      "inputs": [],
      "name": "getAllCharities",
      "outputs": [
        {
          "internalType": "address[]",
          "name": "",
          "type": "address[]"
        },
        {
          "internalType": "string[]",
          "name": "",
          "type": "string[]"
        }
      ],
      "stateMutability": "view",
      "type": "function",
      "constant": true
    },
    {
      "inputs": [],
      "name": "getAllDonors",
      "outputs": [
        {
          "internalType": "address[]",
          "name": "",
          "type": "address[]"
        }
      ],
      "stateMutability": "view",
      "type": "function",
      "constant": true
    },
    {
      "inputs": [],
      "name": "getAllDonorsAndDonations",
      "outputs": [
        {
          "internalType": "address[]",
          "name": "",
          "type": "address[]"
        },
        {
          "internalType": "uint256[]",
          "name": "",
          "type": "uint256[]"
        }
      ],
      "stateMutability": "view",
      "type": "function",
      "constant": true
    },
    {
      "inputs": [],
      "name": "getAllCharitiesAndDonations",
      "outputs": [
        {
          "internalType": "address[]",
          "name": "",
          "type": "address[]"
        },
        {
          "internalType": "uint256[]",
          "name": "",
          "type": "uint256[]"
        }
      ],
      "stateMutability": "view",
      "type": "function",
      "constant": true
    },
    {
      "inputs": [],
      "name": "getAllCharitiesAndTotalDonationsByCharity",
      "outputs": [
        {
          "internalType": "address[]",
          "name": "",
          "type": "address[]"
        },
        {
          "internalType": "uint256[]",
          "name": "",
          "type": "uint256[]"
        }
      ],
      "stateMutability": "view",
      "type": "function",
      "constant": true
    },
    {
      "inputs": [],
      "name": "withdraw",
      "outputs": [],
      "stateMutability": "nonpayable",
      "type": "function"
    }
  ],
  "bytecode": "0x608060405234801561001057600080fd5b50336000806101000a81548173ffffffffffffffffffffffffffffffffffffffff021916908373ffffffffffffffffffffffffffffffffffffffff160217905550612c1e806100606000396000f3fe6080604052600436106101295760003560e01c80639280e6b1116100ab578063afb3ae321161006f578063afb3ae32146103cb578063b5bbd279146103f7578063cc6cb19a14610423578063ce606ee014610460578063f2fde38b1461048b578063f9d48290146104b457610129565b80639280e6b11461030157806398e36b041461032d5780639c08038f146103585780639c239d6914610384578063a0f73def146103c157610129565b8063303f0acb116100f2578063303f0acb1461022e5780633ccfd60b1461025957806364b2e2d9146102705780636fd094f41461029b57806372f7bec8146102d857610129565b8062362a951461012e57806315c0fb431461014a5780632478239a146101775780632503c960146101b45780632573198d146101f1575b600080fd5b61014860048036038101906101439190611e31565b6104f1565b005b34801561015657600080fd5b5061015f61087e565b60405161016e93929190611ff3565b60405180910390f35b34801561018357600080fd5b5061019e60048036038101906101999190611e31565b610ae6565b6040516101ab9190612053565b60405180910390f35b3480156101c057600080fd5b506101db60048036038101906101d69190611e31565b610b06565b6040516101e8919061206e565b60405180910390f35b3480156101fd57600080fd5b5061021860048036038101906102139190611e31565b610b1e565b6040516102259190612119565b60405180910390f35b34801561023a57600080fd5b50610243610bbe565b604051610250919061206e565b60405180910390f35b34801561026557600080fd5b5061026e610bc4565b005b34801561027c57600080fd5b50610285610d70565b604051610292919061206e565b60405180910390f35b3480156102a757600080fd5b506102c260048036038101906102bd9190611e31565b610d76565b6040516102cf9190612053565b60405180910390f35b3480156102e457600080fd5b506102ff60048036038101906102fa9190612270565b610d96565b005b34801561030d57600080fd5b506103166110b8565b6040516103249291906122cc565b60405180910390f35b34801561033957600080fd5b50610342611299565b60405161034f9190612303565b60405180910390f35b34801561036457600080fd5b5061036d611393565b60405161037b9291906122cc565b60405180910390f35b34801561039057600080fd5b506103ab60048036038101906103a69190611e31565b611574565b6040516103b8919061206e565b60405180910390f35b6103c961158c565b005b3480156103d757600080fd5b506103e06118ab565b6040516103ee9291906122cc565b60405180910390f35b34801561040357600080fd5b5061040c611a8c565b60405161041a929190612431565b60405180910390f35b34801561042f57600080fd5b5061044a60048036038101906104459190611e31565b611c9a565b604051610457919061206e565b60405180910390f35b34801561046c57600080fd5b50610475611cb2565b6040516104829190612489565b60405180910390f35b34801561049757600080fd5b506104b260048036038101906104ad9190611e31565b611cd6565b005b3480156104c057600080fd5b506104db60048036038101906104d69190611e31565b611da7565b6040516104e8919061206e565b60405180910390f35b600260008273ffffffffffffffffffffffffffffffffffffffff1673ffffffffffffffffffffffffffffffffffffffff16815260200190815260200160002060009054906101000a900460ff1661057d576040517f08c379a0000000000000000000000000000000000000000000000000000000008152600401610574906124f0565b60405180910390fd5b600034116105c0576040517f08c379a00000000000000000000000000000000000000000000000000000000081526004016105b790612582565b60405180910390fd5b600034905080600860008473ffffffffffffffffffffffffffffffffffffffff1673ffffffffffffffffffffffffffffffffffffffff168152602001908152602001600020600082825461061491906125d1565b92505081905550600460003373ffffffffffffffffffffffffffffffffffffffff1673ffffffffffffffffffffffffffffffffffffffff16815260200190815260200160002060009054906101000a900460ff16610778576000600b600081548092919061068190612605565b9190505590506001600460003373ffffffffffffffffffffffffffffffffffffffff1673ffffffffffffffffffffffffffffffffffffffff16815260200190815260200160002060006101000a81548160ff021916908315150217905550336005600083815260200190815260200160002060006101000a81548173ffffffffffffffffffffffffffffffffffffffff021916908373ffffffffffffffffffffffffffffffffffffffff1602179055506000600660003373ffffffffffffffffffffffffffffffffffffffff1673ffffffffffffffffffffffffffffffffffffffff16815260200190815260200160002081905550505b34600160008473ffffffffffffffffffffffffffffffffffffffff1673ffffffffffffffffffffffffffffffffffffffff16815260200190815260200160002060008282546107c791906125d1565b9250508190555034600660003373ffffffffffffffffffffffffffffffffffffffff1673ffffffffffffffffffffffffffffffffffffffff168152602001908152602001600020600082825461081d91906125d1565b9250508190555034600760008473ffffffffffffffffffffffffffffffffffffffff1673ffffffffffffffffffffffffffffffffffffffff168152602001908152602001600020600082825461087391906125d1565b925050819055505050565b606080600080600c5467ffffffffffffffff8111156108a05761089f612145565b5b6040519080825280602002602001820160405280156108ce5781602001602082028036833780820191505090505b5090506000600c5467ffffffffffffffff8111156108ef576108ee612145565b5b60405190808252806020026020018201604052801561091d5781602001602082028036833780820191505090505b5090506000805b600c54811015610ad4576003600082815260200190815260200160002060009054906101000a900473ffffffffffffffffffffffffffffffffffffffff168482815181106109755761097461264d565b5b602002602001019073ffffffffffffffffffffffffffffffffffffffff16908173ffffffffffffffffffffffffffffffffffffffff1681525050600860006003600084815260200190815260200160002060009054906101000a900473ffffffffffffffffffffffffffffffffffffffff1673ffffffffffffffffffffffffffffffffffffffff1673ffffffffffffffffffffffffffffffffffffffff16815260200190815260200160002054838281518110610a3557610a3461264d565b5b602002602001018181525050600860006003600084815260200190815260200160002060009054906101000a900473ffffffffffffffffffffffffffffffffffffffff1673ffffffffffffffffffffffffffffffffffffffff1673ffffffffffffffffffffffffffffffffffffffff1681526020019081526020016000205482610abf91906125d1565b91508080610acc90612605565b915050610924565b50828282955095509550505050909192565b60026020528060005260406000206000915054906101000a900460ff1681565b60076020528060005260406000206000915090505481565b60096020528060005260406000206000915090508054610b3d906126ab565b80601f0160208091040260200160405190810160405280929190818152602001828054610b69906126ab565b8015610bb65780601f10610b8b57610100808354040283529160200191610bb6565b820191906000526020600020905b815481529060010190602001808311610b9957829003601f168201915b505050505081565b600c5481565b6001600260003373ffffffffffffffffffffffffffffffffffffffff1673ffffffffffffffffffffffffffffffffffffffff16815260200190815260200160002060006101000a81548160ff0219169083151502179055610c5a576040517f08c379a0000000000000000000000000000000000000000000000000000000008152600401610c519061274e565b60405180910390fd5b6000600160003373ffffffffffffffffffffffffffffffffffffffff1673ffffffffffffffffffffffffffffffffffffffff16815260200190815260200160002054905060008111610ce1576040517f08c379a0000000000000000000000000000000000000000000000000000000008152600401610cd8906127e0565b60405180910390fd5b6000600160003373ffffffffffffffffffffffffffffffffffffffff1673ffffffffffffffffffffffffffffffffffffffff168152602001908152602001600020819055503373ffffffffffffffffffffffffffffffffffffffff166108fc829081150290604051600060405180830381858888f19350505050158015610d6c573d6000803e3d6000fd5b5050565b600b5481565b60046020528060005260406000206000915054906101000a900460ff1681565b60008054906101000a900473ffffffffffffffffffffffffffffffffffffffff1673ffffffffffffffffffffffffffffffffffffffff163373ffffffffffffffffffffffffffffffffffffffff1614610e24576040517f08c379a0000000000000000000000000000000000000000000000000000000008152600401610e1b9061284c565b60405180910390fd5b600260008373ffffffffffffffffffffffffffffffffffffffff1673ffffffffffffffffffffffffffffffffffffffff16815260200190815260200160002060009054906101000a900460ff1615610eb1576040517f08c379a0000000000000000000000000000000000000000000000000000000008152600401610ea8906128b8565b60405180910390fd5b6001600260008473ffffffffffffffffffffffffffffffffffffffff1673ffffffffffffffffffffffffffffffffffffffff16815260200190815260200160002060006101000a81548160ff02191690831515021790555080600960008473ffffffffffffffffffffffffffffffffffffffff1673ffffffffffffffffffffffffffffffffffffffff1681526020019081526020016000209081610f559190612a84565b506000600c6000815480929190610f6b90612605565b919050559050826003600083815260200190815260200160002060006101000a81548173ffffffffffffffffffffffffffffffffffffffff021916908373ffffffffffffffffffffffffffffffffffffffff16021790555081600a60008381526020019081526020016000209081610fe39190612a84565b506000600860008573ffffffffffffffffffffffffffffffffffffffff1673ffffffffffffffffffffffffffffffffffffffff168152602001908152602001600020819055506000600160008573ffffffffffffffffffffffffffffffffffffffff1673ffffffffffffffffffffffffffffffffffffffff168152602001908152602001600020819055506000600760008573ffffffffffffffffffffffffffffffffffffffff1673ffffffffffffffffffffffffffffffffffffffff16815260200190815260200160002081905550505050565b6060806000600c5467ffffffffffffffff8111156110d9576110d8612145565b5b6040519080825280602002602001820160405280156111075781602001602082028036833780820191505090505b5090506000600c5467ffffffffffffffff81111561112857611127612145565b5b6040519080825280602002602001820160405280156111565781602001602082028036833780820191505090505b50905060005b600c5481101561128c576003600082815260200190815260200160002060009054906101000a900473ffffffffffffffffffffffffffffffffffffffff168382815181106111ad576111ac61264d565b5b602002602001019073ffffffffffffffffffffffffffffffffffffffff16908173ffffffffffffffffffffffffffffffffffffffff1681525050600760006003600084815260200190815260200160002060009054906101000a900473ffffffffffffffffffffffffffffffffffffffff1673ffffffffffffffffffffffffffffffffffffffff1673ffffffffffffffffffffffffffffffffffffffff1681526020019081526020016000205482828151811061126d5761126c61264d565b5b602002602001018181525050808061128490612605565b91505061115c565b5081819350935050509091565b60606000600b5467ffffffffffffffff8111156112b9576112b8612145565b5b6040519080825280602002602001820160405280156112e75781602001602082028036833780820191505090505b50905060005b600b5481101561138b576005600082815260200190815260200160002060009054906101000a900473ffffffffffffffffffffffffffffffffffffffff1682828151811061133e5761133d61264d565b5b602002602001019073ffffffffffffffffffffffffffffffffffffffff16908173ffffffffffffffffffffffffffffffffffffffff1681525050808061138390612605565b9150506112ed565b508091505090565b6060806000600b5467ffffffffffffffff8111156113b4576113b3612145565b5b6040519080825280602002602001820160405280156113e25781602001602082028036833780820191505090505b5090506000600b5467ffffffffffffffff81111561140357611402612145565b5b6040519080825280602002602001820160405280156114315781602001602082028036833780820191505090505b50905060005b600b54811015611567576005600082815260200190815260200160002060009054906101000a900473ffffffffffffffffffffffffffffffffffffffff168382815181106114885761148761264d565b5b602002602001019073ffffffffffffffffffffffffffffffffffffffff16908173ffffffffffffffffffffffffffffffffffffffff1681525050600660006005600084815260200190815260200160002060009054906101000a900473ffffffffffffffffffffffffffffffffffffffff1673ffffffffffffffffffffffffffffffffffffffff1673ffffffffffffffffffffffffffffffffffffffff168152602001908152602001600020548282815181106115485761154761264d565b5b602002602001018181525050808061155f90612605565b915050611437565b5081819350935050509091565b60066020528060005260406000206000915090505481565b60008054906101000a900473ffffffffffffffffffffffffffffffffffffffff1673ffffffffffffffffffffffffffffffffffffffff163373ffffffffffffffffffffffffffffffffffffffff161461161a576040517f08c379a00000000000000000000000000000000000000000000000000000000081526004016116119061284c565b60405180910390fd5b60005b600c548110156118a857600860006003600084815260200190815260200160002060009054906101000a900473ffffffffffffffffffffffffffffffffffffffff1673ffffffffffffffffffffffffffffffffffffffff1673ffffffffffffffffffffffffffffffffffffffff16815260200190815260200160002054600160006003600085815260200190815260200160002060009054906101000a900473ffffffffffffffffffffffffffffffffffffffff1673ffffffffffffffffffffffffffffffffffffffff1673ffffffffffffffffffffffffffffffffffffffff168152602001908152602001600020600082825461171b91906125d1565b92505081905550600860006003600084815260200190815260200160002060009054906101000a900473ffffffffffffffffffffffffffffffffffffffff1673ffffffffffffffffffffffffffffffffffffffff1673ffffffffffffffffffffffffffffffffffffffff16815260200190815260200160002054600760006003600085815260200190815260200160002060009054906101000a900473ffffffffffffffffffffffffffffffffffffffff1673ffffffffffffffffffffffffffffffffffffffff1673ffffffffffffffffffffffffffffffffffffffff168152602001908152602001600020600082825461181691906125d1565b925050819055506000600860006003600085815260200190815260200160002060009054906101000a900473ffffffffffffffffffffffffffffffffffffffff1673ffffffffffffffffffffffffffffffffffffffff1673ffffffffffffffffffffffffffffffffffffffff1681526020019081526020016000208190555080806118a090612605565b91505061161d565b50565b6060806000600c5467ffffffffffffffff8111156118cc576118cb612145565b5b6040519080825280602002602001820160405280156118fa5781602001602082028036833780820191505090505b5090506000600c5467ffffffffffffffff81111561191b5761191a612145565b5b6040519080825280602002602001820160405280156119495781602001602082028036833780820191505090505b50905060005b600c54811015611a7f576003600082815260200190815260200160002060009054906101000a900473ffffffffffffffffffffffffffffffffffffffff168382815181106119a05761199f61264d565b5b602002602001019073ffffffffffffffffffffffffffffffffffffffff16908173ffffffffffffffffffffffffffffffffffffffff1681525050600160006003600084815260200190815260200160002060009054906101000a900473ffffffffffffffffffffffffffffffffffffffff1673ffffffffffffffffffffffffffffffffffffffff1673ffffffffffffffffffffffffffffffffffffffff16815260200190815260200160002054828281518110611a6057611a5f61264d565b5b6020026020010181815250508080611a7790612605565b91505061194f565b5081819350935050509091565b6060806000600c5467ffffffffffffffff811115611aad57611aac612145565b5b604051908082528060200260200182016040528015611adb5781602001602082028036833780820191505090505b5090506000600c5467ffffffffffffffff811115611afc57611afb612145565b5b604051908082528060200260200182016040528015611b2f57816020015b6060815260200190600190039081611b1a5790505b50905060005b600c54811015611c8d576003600082815260200190815260200160002060009054906101000a900473ffffffffffffffffffffffffffffffffffffffff16838281518110611b8657611b8561264d565b5b602002602001019073ffffffffffffffffffffffffffffffffffffffff16908173ffffffffffffffffffffffffffffffffffffffff1681525050600a60008281526020019081526020016000208054611bde906126ab565b80601f0160208091040260200160405190810160405280929190818152602001828054611c0a906126ab565b8015611c575780601f10611c2c57610100808354040283529160200191611c57565b820191906000526020600020905b815481529060010190602001808311611c3a57829003601f168201915b5050505050828281518110611c6f57611c6e61264d565b5b60200260200101819052508080611c8590612605565b915050611b35565b5081819350935050509091565b60016020528060005260406000206000915090505481565b60008054906101000a900473ffffffffffffffffffffffffffffffffffffffff1681565b60008054906101000a900473ffffffffffffffffffffffffffffffffffffffff1673ffffffffffffffffffffffffffffffffffffffff163373ffffffffffffffffffffffffffffffffffffffff1614611d64576040517f08c379a0000000000000000000000000000000000000000000000000000000008152600401611d5b90612bc8565b60405180910390fd5b806000806101000a81548173ffffffffffffffffffffffffffffffffffffffff021916908373ffffffffffffffffffffffffffffffffffffffff16021790555050565b60086020528060005260406000206000915090505481565b6000604051905090565b600080fd5b600080fd5b600073ffffffffffffffffffffffffffffffffffffffff82169050919050565b6000611dfe82611dd3565b9050919050565b611e0e81611df3565b8114611e1957600080fd5b50565b600081359050611e2b81611e05565b92915050565b600060208284031215611e4757611e46611dc9565b5b6000611e5584828501611e1c565b91505092915050565b600081519050919050565b600082825260208201905092915050565b6000819050602082019050919050565b611e9381611df3565b82525050565b6000611ea58383611e8a565b60208301905092915050565b6000602082019050919050565b6000611ec982611e5e565b611ed38185611e69565b9350611ede83611e7a565b8060005b83811015611f0f578151611ef68882611e99565b9750611f0183611eb1565b925050600181019050611ee2565b5085935050505092915050565b600081519050919050565b600082825260208201905092915050565b6000819050602082019050919050565b6000819050919050565b611f5b81611f48565b82525050565b6000611f6d8383611f52565b60208301905092915050565b6000602082019050919050565b6000611f9182611f1c565b611f9b8185611f27565b9350611fa683611f38565b8060005b83811015611fd7578151611fbe8882611f61565b9750611fc983611f79565b925050600181019050611faa565b5085935050505092915050565b611fed81611f48565b82525050565b6000606082019050818103600083015261200d8186611ebe565b905081810360208301526120218185611f86565b90506120306040830184611fe4565b949350505050565b60008115159050919050565b61204d81612038565b82525050565b60006020820190506120686000830184612044565b92915050565b60006020820190506120836000830184611fe4565b92915050565b600081519050919050565b600082825260208201905092915050565b60005b838110156120c35780820151818401526020810190506120a8565b60008484015250505050565b6000601f19601f8301169050919050565b60006120eb82612089565b6120f58185612094565b93506121058185602086016120a5565b61210e816120cf565b840191505092915050565b6000602082019050818103600083015261213381846120e0565b905092915050565b600080fd5b600080fd5b7f4e487b7100000000000000000000000000000000000000000000000000000000600052604160045260246000fd5b61217d826120cf565b810181811067ffffffffffffffff8211171561219c5761219b612145565b5b80604052505050565b60006121af611dbf565b90506121bb8282612174565b919050565b600067ffffffffffffffff8211156121db576121da612145565b5b6121e4826120cf565b9050602081019050919050565b82818337600083830152505050565b600061221361220e846121c0565b6121a5565b90508281526020810184848401111561222f5761222e612140565b5b61223a8482856121f1565b509392505050565b600082601f8301126122575761225661213b565b5b8135612267848260208601612200565b91505092915050565b6000806040838503121561228757612286611dc9565b5b600061229585828601611e1c565b925050602083013567ffffffffffffffff8111156122b6576122b5611dce565b5b6122c285828601612242565b9150509250929050565b600060408201905081810360008301526122e68185611ebe565b905081810360208301526122fa8184611f86565b90509392505050565b6000602082019050818103600083015261231d8184611ebe565b905092915050565b600081519050919050565b600082825260208201905092915050565b6000819050602082019050919050565b600082825260208201905092915050565b600061236d82612089565b6123778185612351565b93506123878185602086016120a5565b612390816120cf565b840191505092915050565b60006123a78383612362565b905092915050565b6000602082019050919050565b60006123c782612325565b6123d18185612330565b9350836020820285016123e385612341565b8060005b8581101561241f5784840389528151612400858261239b565b945061240b836123af565b925060208a019950506001810190506123e7565b50829750879550505050505092915050565b6000604082019050818103600083015261244b8185611ebe565b9050818103602083015261245f81846123bc565b90509392505050565b600061247382611dd3565b9050919050565b61248381612468565b82525050565b600060208201905061249e600083018461247a565b92915050565b7f496e76616c6964206368617269747920616464726573732e0000000000000000600082015250565b60006124da601883612094565b91506124e5826124a4565b602082019050919050565b60006020820190508181036000830152612509816124cd565b9050919050565b7f446f6e6174696f6e20616d6f756e74206d75737420626520677265617465722060008201527f7468616e20302e00000000000000000000000000000000000000000000000000602082015250565b600061256c602783612094565b915061257782612510565b604082019050919050565b6000602082019050818103600083015261259b8161255f565b9050919050565b7f4e487b7100000000000000000000000000000000000000000000000000000000600052601160045260246000fd5b60006125dc82611f48565b91506125e783611f48565b92508282019050808211156125ff576125fe6125a2565b5b92915050565b600061261082611f48565b91507fffffffffffffffffffffffffffffffffffffffffffffffffffffffffffffffff8203612642576126416125a2565b5b600182019050919050565b7f4e487b7100000000000000000000000000000000000000000000000000000000600052603260045260246000fd5b7f4e487b7100000000000000000000000000000000000000000000000000000000600052602260045260246000fd5b600060028204905060018216806126c357607f821691505b6020821081036126d6576126d561267c565b5b50919050565b7f596f7520617265206e6f74206f6e65206f66207468652063686172697469657360008201527f2e00000000000000000000000000000000000000000000000000000000000000602082015250565b6000612738602183612094565b9150612743826126dc565b604082019050919050565b600060208201905081810360008301526127678161272b565b9050919050565b7f4e6f2066756e647320617661696c61626c6520666f722077697468647261776160008201527f6c2e000000000000000000000000000000000000000000000000000000000000602082015250565b60006127ca602283612094565b91506127d58261276e565b604082019050919050565b600060208201905081810360008301526127f9816127bd565b9050919050565b7f4f6e6c7920746865206f776e65722063616e20646f2074686174000000000000600082015250565b6000612836601a83612094565b915061284182612800565b602082019050919050565b6000602082019050818103600083015261286581612829565b9050919050565b7f54686973206368617269747920616c7265616479206578697374210000000000600082015250565b60006128a2601b83612094565b91506128ad8261286c565b602082019050919050565b600060208201905081810360008301526128d181612895565b9050919050565b60008190508160005260206000209050919050565b60006020601f8301049050919050565b600082821b905092915050565b60006008830261293a7fffffffffffffffffffffffffffffffffffffffffffffffffffffffffffffffff826128fd565b61294486836128fd565b95508019841693508086168417925050509392505050565b6000819050919050565b600061298161297c61297784611f48565b61295c565b611f48565b9050919050565b6000819050919050565b61299b83612966565b6129af6129a782612988565b84845461290a565b825550505050565b600090565b6129c46129b7565b6129cf818484612992565b505050565b5b818110156129f3576129e86000826129bc565b6001810190506129d5565b5050565b601f821115612a3857612a09816128d8565b612a12846128ed565b81016020851015612a21578190505b612a35612a2d856128ed565b8301826129d4565b50505b505050565b600082821c905092915050565b6000612a5b60001984600802612a3d565b1980831691505092915050565b6000612a748383612a4a565b9150826002028217905092915050565b612a8d82612089565b67ffffffffffffffff811115612aa657612aa5612145565b5b612ab082546126ab565b612abb8282856129f7565b600060209050601f831160018114612aee5760008415612adc578287015190505b612ae68582612a68565b865550612b4e565b601f198416612afc866128d8565b60005b82811015612b2457848901518255600182019150602085019450602081019050612aff565b86831015612b415784890151612b3d601f891682612a4a565b8355505b6001600288020188555050505b505050505050565b7f4f6e6c792074686520636f6e7472616374206f776e65722063616e206368616e60008201527f67652074686520636f6e7472616374206f776e65722e00000000000000000000602082015250565b6000612bb2603683612094565b9150612bbd82612b56565b604082019050919050565b60006020820190508181036000830152612be181612ba5565b905091905056fea264697066735822122081b031b7805b481aba3ff30bea2ff3c4bacb94c871bcbc4fd1a1e29e33ef318f64736f6c63430008110033",
  "immutableReferences": {},
  "source": "// SPDX-License-Identifier: MIT\r\npragma solidity ^0.8.0;\r\n\r\ncontract CharityDonation {\r\n    address payable public contractOwner;\r\n    mapping(address => uint) public donations;\r\n    mapping(address => bool) public charities;\r\n    mapping(uint => address) private lutCharities;\r\n    mapping(address => bool) public Donors;\r\n    mapping(uint => address) private lutDonors;\r\n    mapping(address => uint) public totalDonationsByDonor;\r\n    mapping(address => uint) public totalDonationsByCharity;\r\n    mapping(address => uint) public charitiesMatchedAmount;\r\n    mapping(address => string) public charitiesNames;\r\n    mapping(uint => string) private lutCharitiesNames;\r\n\r\n    uint public numberOfDonors;\r\n    uint public numberOfCharities;\r\n\r\n    constructor() {\r\n        contractOwner = payable(msg.sender); \r\n    }\r\n\r\n    function transferOwnership(address newOwner) external {\r\n        require(msg.sender == contractOwner, \"Only the contract owner can change the contract owner.\");\r\n        contractOwner = payable(newOwner);\r\n    }\r\n\r\n    modifier onlyOwner(){\r\n        require(msg.sender == contractOwner, \"Only the owner can do that\");\r\n        _;\r\n    }\r\n\r\n    function addCharity( address _charity , string memory _charityName ) public onlyOwner {\r\n        require(!charities[_charity], \"This charity already exist!\");\r\n        \r\n            charities[_charity] = true;\r\n            charitiesNames[_charity] = _charityName;\r\n            uint charitiesIndex = numberOfCharities++;\r\n            lutCharities[charitiesIndex] = _charity;\r\n            lutCharitiesNames[charitiesIndex] = _charityName;\r\n            charitiesMatchedAmount[_charity] = 0;\r\n            donations[_charity] = 0;\r\n            totalDonationsByCharity[_charity] = 0;\r\n            \r\n    }\r\n\r\n    // The donation function\r\n    function donate(address _charity) public payable {\r\n        require(charities[_charity], \"Invalid charity address.\");\r\n        require(msg.value > 0, \"Donation amount must be greater than 0.\" );\r\n        uint matchedAmount = msg.value;\r\n        charitiesMatchedAmount[_charity] += matchedAmount;\r\n        if (!Donors[msg.sender]){\r\n            uint DonorsIndex = numberOfDonors++;\r\n            Donors[msg.sender]=true;\r\n            lutDonors[DonorsIndex]=msg.sender;\r\n             totalDonationsByDonor[msg.sender] = 0;\r\n        }\r\n        donations[_charity] += msg.value;\r\n        totalDonationsByDonor[msg.sender] += msg.value;\r\n        totalDonationsByCharity[_charity] += msg.value;\r\n    }\r\n\r\n    //Show all the amounts the contract's owner need to match \r\n    function getAllCharitiesAndMatchedAmount() public view returns(address[] memory,uint[] memory ,uint  ) {\r\n        address[] memory _Charities = new address[](numberOfCharities);\r\n        uint[] memory _MatchedAmounts = new uint[](numberOfCharities);\r\n        uint  _SumMatchedAmounts = 0;\r\n        for(uint i=0; i<numberOfCharities; i++){\r\n            _Charities[i]=lutCharities[i];\r\n            _MatchedAmounts[i]=charitiesMatchedAmount[lutCharities[i]];\r\n            _SumMatchedAmounts += charitiesMatchedAmount[lutCharities[i]];\r\n        }\r\n        return (_Charities,_MatchedAmounts , _SumMatchedAmounts );\r\n    }\r\n\r\n    //Function for the contract's owner to pay all matched amounts\r\n    function matchTheDonations() public payable onlyOwner {\r\n        for(uint i=0; i<numberOfCharities; i++){\r\n            donations[lutCharities[i]] += charitiesMatchedAmount[lutCharities[i]];\r\n            totalDonationsByCharity[lutCharities[i]] += charitiesMatchedAmount[lutCharities[i]];\r\n            charitiesMatchedAmount[lutCharities[i]] = 0;\r\n        }\r\n    }\r\n\r\n    //Show all charities\r\n    function getAllCharities() public view returns(address[] memory , string[] memory ) {\r\n        address[] memory _Charities = new address[](numberOfCharities);\r\n        string[] memory  _CharitiesNames = new string[](numberOfCharities);\r\n        for(uint i=0; i<numberOfCharities; i++){\r\n            _Charities[i]=lutCharities[i];\r\n             _CharitiesNames[i] = lutCharitiesNames[i];\r\n        }\r\n        return (_Charities, _CharitiesNames );    \r\n    }\r\n    \r\n    //Shows all donors\r\n    function getAllDonors() public view returns(address[] memory) {\r\n        address[] memory _Donors = new address[](numberOfDonors);\r\n        for(uint i=0; i<numberOfDonors; i++){\r\n            _Donors[i]=lutDonors[i];\r\n        }\r\n        return _Donors;\r\n    }\r\n\r\n    //Shows all donors and their donations\r\n    function getAllDonorsAndDonations() public view returns(address[] memory,uint[] memory) {\r\n        address[] memory _Donors = new address[](numberOfDonors);\r\n        uint[] memory _Donations = new uint[](numberOfDonors);\r\n        for(uint i=0; i<numberOfDonors; i++){\r\n            _Donors[i]=lutDonors[i];\r\n            _Donations[i]=totalDonationsByDonor[lutDonors[i]];\r\n        }\r\n        return (_Donors,_Donations );\r\n    }\r\n\r\n    //Shows all charities and their current donation balance\r\n    function getAllCharitiesAndDonations() public view returns(address[] memory,uint[] memory) {\r\n        address[] memory _Charities = new address[](numberOfCharities);\r\n        uint[] memory _Donations = new uint[](numberOfCharities);\r\n        for(uint i=0; i<numberOfCharities; i++){\r\n            _Charities[i]=lutCharities[i];\r\n            _Donations[i]=donations[lutCharities[i]];\r\n        }\r\n        return (_Charities,_Donations);\r\n    }\r\n\r\n    //Shows all charities and their total donation balance ever\r\n     function getAllCharitiesAndTotalDonationsByCharity() public view returns(address[] memory,uint[] memory) {\r\n        address[] memory _Charities = new address[](numberOfCharities);\r\n        uint[] memory _TotalDonationsByCharity = new uint[](numberOfCharities);\r\n        for(uint i=0; i<numberOfCharities; i++){\r\n            _Charities[i]=lutCharities[i];\r\n            _TotalDonationsByCharity[i]=totalDonationsByCharity[lutCharities[i]];\r\n        }\r\n        return (_Charities,_TotalDonationsByCharity);\r\n    }\r\n\r\n    //Withdraw function for the charities to withdraw all their current donations\r\n    function withdraw() public {\r\n        require(charities[msg.sender] = true, \"You are not one of the charities.\");\r\n        uint amount = donations[msg.sender];\r\n        require(amount > 0, \"No funds available for withdrawal.\");\r\n        donations[msg.sender] = 0;\r\n        payable(msg.sender).transfer(amount);\r\n    }\r\n\r\n\r\n}\r\n\r\n\r\n// const instance = await CharityDonation.deployed()\r\n// instance.addCharity(\"0x197455e3eEf7dA7302ac524a97e3Ca041cEd154D\",\"Moses's Charity\") \r\n// instance.getAllCharities()",
  "sourcePath": "C:\\Users\\Almog Yosef Zamir\\Desktop\\  \\Codes Folder\\donations_react\\contracts\\CharityDonation.sol",
  "compiler": {
    "name": "solc",
    "version": "0.8.17+commit.8df45f5f.Emscripten.clang"
  },
  "schemaVersion": "3.4.11",
  "updatedAt": "2023-03-20T20:28:59.280Z",
  "networkType": "ethereum",
  "devdoc": {
    "kind": "dev",
    "methods": {},
    "version": 1
  },
  "userdoc": {
    "kind": "user",
    "methods": {},
    "version": 1
  }
}