{
  "contractName": "CharityDonation",
  "abi": [
    {
      "inputs": [],
      "stateMutability": "nonpayable",
      "type": "constructor"
    },
    {
      "inputs": [
        {
          "internalType": "address",
          "name": "",
          "type": "address"
        }
      ],
      "name": "Donors",
      "outputs": [
        {
          "internalType": "bool",
          "name": "",
          "type": "bool"
        }
      ],
      "stateMutability": "view",
      "type": "function",
      "constant": true
    },
    {
      "inputs": [
        {
          "internalType": "address",
          "name": "",
          "type": "address"
        }
      ],
      "name": "charities",
      "outputs": [
        {
          "internalType": "bool",
          "name": "",
          "type": "bool"
        }
      ],
      "stateMutability": "view",
      "type": "function",
      "constant": true
    },
    {
      "inputs": [
        {
          "internalType": "address",
          "name": "",
          "type": "address"
        }
      ],
      "name": "charitiesMatchedAmount",
      "outputs": [
        {
          "internalType": "uint256",
          "name": "",
          "type": "uint256"
        }
      ],
      "stateMutability": "view",
      "type": "function",
      "constant": true
    },
    {
      "inputs": [
        {
          "internalType": "address",
          "name": "",
          "type": "address"
        }
      ],
      "name": "charitiesNames",
      "outputs": [
        {
          "internalType": "string",
          "name": "",
          "type": "string"
        }
      ],
      "stateMutability": "view",
      "type": "function",
      "constant": true
    },
    {
      "inputs": [],
      "name": "contractOwner",
      "outputs": [
        {
          "internalType": "address payable",
          "name": "",
          "type": "address"
        }
      ],
      "stateMutability": "view",
      "type": "function",
      "constant": true
    },
    {
      "inputs": [
        {
          "internalType": "address",
          "name": "",
          "type": "address"
        }
      ],
      "name": "donations",
      "outputs": [
        {
          "internalType": "uint256",
          "name": "",
          "type": "uint256"
        }
      ],
      "stateMutability": "view",
      "type": "function",
      "constant": true
    },
    {
      "inputs": [],
      "name": "numberOfCharities",
      "outputs": [
        {
          "internalType": "uint256",
          "name": "",
          "type": "uint256"
        }
      ],
      "stateMutability": "view",
      "type": "function",
      "constant": true
    },
    {
      "inputs": [],
      "name": "numberOfDonors",
      "outputs": [
        {
          "internalType": "uint256",
          "name": "",
          "type": "uint256"
        }
      ],
      "stateMutability": "view",
      "type": "function",
      "constant": true
    },
    {
      "inputs": [
        {
          "internalType": "address",
          "name": "",
          "type": "address"
        }
      ],
      "name": "totalDonationsByCharity",
      "outputs": [
        {
          "internalType": "uint256",
          "name": "",
          "type": "uint256"
        }
      ],
      "stateMutability": "view",
      "type": "function",
      "constant": true
    },
    {
      "inputs": [
        {
          "internalType": "address",
          "name": "",
          "type": "address"
        }
      ],
      "name": "totalDonationsByDonor",
      "outputs": [
        {
          "internalType": "uint256",
          "name": "",
          "type": "uint256"
        }
      ],
      "stateMutability": "view",
      "type": "function",
      "constant": true
    },
    {
      "inputs": [
        {
          "internalType": "address",
          "name": "newOwner",
          "type": "address"
        }
      ],
      "name": "transferOwnership",
      "outputs": [],
      "stateMutability": "nonpayable",
      "type": "function"
    },
    {
      "inputs": [
        {
          "internalType": "address",
          "name": "_charity",
          "type": "address"
        },
        {
          "internalType": "string",
          "name": "_charityName",
          "type": "string"
        }
      ],
      "name": "addCharity",
      "outputs": [],
      "stateMutability": "nonpayable",
      "type": "function"
    },
    {
      "inputs": [
        {
          "internalType": "address",
          "name": "_charity",
          "type": "address"
        }
      ],
      "name": "donate",
      "outputs": [],
      "stateMutability": "payable",
      "type": "function",
      "payable": true
    },
    {
      "inputs": [],
      "name": "getAllCharitiesAndMatchedAmount",
      "outputs": [
        {
          "internalType": "address[]",
          "name": "",
          "type": "address[]"
        },
        {
          "internalType": "uint256[]",
          "name": "",
          "type": "uint256[]"
        }
      ],
      "stateMutability": "view",
      "type": "function",
      "constant": true
    },
    {
      "inputs": [],
      "name": "matchTheDonations",
      "outputs": [],
      "stateMutability": "payable",
      "type": "function",
      "payable": true
    },
    {
      "inputs": [],
      "name": "getAllCharities",
      "outputs": [
        {
          "internalType": "address[]",
          "name": "",
          "type": "address[]"
        },
        {
          "internalType": "string[]",
          "name": "",
          "type": "string[]"
        }
      ],
      "stateMutability": "view",
      "type": "function",
      "constant": true
    },
    {
      "inputs": [],
      "name": "getAllDonors",
      "outputs": [
        {
          "internalType": "address[]",
          "name": "",
          "type": "address[]"
        }
      ],
      "stateMutability": "view",
      "type": "function",
      "constant": true
    },
    {
      "inputs": [],
      "name": "getAllDonorsAndDonations",
      "outputs": [
        {
          "internalType": "address[]",
          "name": "",
          "type": "address[]"
        },
        {
          "internalType": "uint256[]",
          "name": "",
          "type": "uint256[]"
        }
      ],
      "stateMutability": "view",
      "type": "function",
      "constant": true
    },
    {
      "inputs": [],
      "name": "getAllCharitiesAndDonations",
      "outputs": [
        {
          "internalType": "address[]",
          "name": "",
          "type": "address[]"
        },
        {
          "internalType": "uint256[]",
          "name": "",
          "type": "uint256[]"
        }
      ],
      "stateMutability": "view",
      "type": "function",
      "constant": true
    },
    {
      "inputs": [],
      "name": "getAllCharitiesAndTotalDonationsByCharity",
      "outputs": [
        {
          "internalType": "address[]",
          "name": "",
          "type": "address[]"
        },
        {
          "internalType": "uint256[]",
          "name": "",
          "type": "uint256[]"
        }
      ],
      "stateMutability": "view",
      "type": "function",
      "constant": true
    },
    {
      "inputs": [],
      "name": "withdraw",
      "outputs": [],
      "stateMutability": "nonpayable",
      "type": "function"
    }
  ],
  "bytecode": "0x608060405234801561001057600080fd5b50336000806101000a81548173ffffffffffffffffffffffffffffffffffffffff021916908373ffffffffffffffffffffffffffffffffffffffff160217905550612d39806100606000396000f3fe6080604052600436106101295760003560e01c80639280e6b1116100ab578063afb3ae321161006f578063afb3ae32146103ca578063b5bbd279146103f6578063cc6cb19a14610422578063ce606ee01461045f578063f2fde38b1461048a578063f9d48290146104b357610129565b80639280e6b11461030057806398e36b041461032c5780639c08038f146103575780639c239d6914610383578063a0f73def146103c057610129565b8063303f0acb116100f2578063303f0acb1461022d5780633ccfd60b1461025857806364b2e2d91461026f5780636fd094f41461029a57806372f7bec8146102d757610129565b8062362a951461012e57806315c0fb431461014a5780632478239a146101765780632503c960146101b35780632573198d146101f0575b600080fd5b61014860048036038101906101439190611e6d565b6104f0565b005b34801561015657600080fd5b5061015f61087d565b60405161016d929190612020565b60405180910390f35b34801561018257600080fd5b5061019d60048036038101906101989190611e6d565b610a5e565b6040516101aa9190612072565b60405180910390f35b3480156101bf57600080fd5b506101da60048036038101906101d59190611e6d565b610a7e565b6040516101e7919061209c565b60405180910390f35b3480156101fc57600080fd5b5061021760048036038101906102129190611e6d565b610a96565b6040516102249190612147565b60405180910390f35b34801561023957600080fd5b50610242610b36565b60405161024f919061209c565b60405180910390f35b34801561026457600080fd5b5061026d610b3c565b005b34801561027b57600080fd5b50610284610ce8565b604051610291919061209c565b60405180910390f35b3480156102a657600080fd5b506102c160048036038101906102bc9190611e6d565b610cee565b6040516102ce9190612072565b60405180910390f35b3480156102e357600080fd5b506102fe60048036038101906102f9919061229e565b610d0e565b005b34801561030c57600080fd5b50610315611030565b604051610323929190612020565b60405180910390f35b34801561033857600080fd5b50610341611211565b60405161034e91906122fa565b60405180910390f35b34801561036357600080fd5b5061036c61130b565b60405161037a929190612020565b60405180910390f35b34801561038f57600080fd5b506103aa60048036038101906103a59190611e6d565b6114ec565b6040516103b7919061209c565b60405180910390f35b6103c8611504565b005b3480156103d657600080fd5b506103df6118e7565b6040516103ed929190612020565b60405180910390f35b34801561040257600080fd5b5061040b611ac8565b604051610419929190612428565b60405180910390f35b34801561042e57600080fd5b5061044960048036038101906104449190611e6d565b611cd6565b604051610456919061209c565b60405180910390f35b34801561046b57600080fd5b50610474611cee565b6040516104819190612480565b60405180910390f35b34801561049657600080fd5b506104b160048036038101906104ac9190611e6d565b611d12565b005b3480156104bf57600080fd5b506104da60048036038101906104d59190611e6d565b611de3565b6040516104e7919061209c565b60405180910390f35b600260008273ffffffffffffffffffffffffffffffffffffffff1673ffffffffffffffffffffffffffffffffffffffff16815260200190815260200160002060009054906101000a900460ff1661057c576040517f08c379a0000000000000000000000000000000000000000000000000000000008152600401610573906124e7565b60405180910390fd5b600034116105bf576040517f08c379a00000000000000000000000000000000000000000000000000000000081526004016105b690612579565b60405180910390fd5b600034905080600860008473ffffffffffffffffffffffffffffffffffffffff1673ffffffffffffffffffffffffffffffffffffffff168152602001908152602001600020600082825461061391906125c8565b92505081905550600460003373ffffffffffffffffffffffffffffffffffffffff1673ffffffffffffffffffffffffffffffffffffffff16815260200190815260200160002060009054906101000a900460ff16610777576000600b6000815480929190610680906125fc565b9190505590506001600460003373ffffffffffffffffffffffffffffffffffffffff1673ffffffffffffffffffffffffffffffffffffffff16815260200190815260200160002060006101000a81548160ff021916908315150217905550336005600083815260200190815260200160002060006101000a81548173ffffffffffffffffffffffffffffffffffffffff021916908373ffffffffffffffffffffffffffffffffffffffff1602179055506000600660003373ffffffffffffffffffffffffffffffffffffffff1673ffffffffffffffffffffffffffffffffffffffff16815260200190815260200160002081905550505b34600160008473ffffffffffffffffffffffffffffffffffffffff1673ffffffffffffffffffffffffffffffffffffffff16815260200190815260200160002060008282546107c691906125c8565b9250508190555034600660003373ffffffffffffffffffffffffffffffffffffffff1673ffffffffffffffffffffffffffffffffffffffff168152602001908152602001600020600082825461081c91906125c8565b9250508190555034600760008473ffffffffffffffffffffffffffffffffffffffff1673ffffffffffffffffffffffffffffffffffffffff168152602001908152602001600020600082825461087291906125c8565b925050819055505050565b6060806000600c5467ffffffffffffffff81111561089e5761089d612173565b5b6040519080825280602002602001820160405280156108cc5781602001602082028036833780820191505090505b5090506000600c5467ffffffffffffffff8111156108ed576108ec612173565b5b60405190808252806020026020018201604052801561091b5781602001602082028036833780820191505090505b50905060005b600c54811015610a51576003600082815260200190815260200160002060009054906101000a900473ffffffffffffffffffffffffffffffffffffffff1683828151811061097257610971612644565b5b602002602001019073ffffffffffffffffffffffffffffffffffffffff16908173ffffffffffffffffffffffffffffffffffffffff1681525050600860006003600084815260200190815260200160002060009054906101000a900473ffffffffffffffffffffffffffffffffffffffff1673ffffffffffffffffffffffffffffffffffffffff1673ffffffffffffffffffffffffffffffffffffffff16815260200190815260200160002054828281518110610a3257610a31612644565b5b6020026020010181815250508080610a49906125fc565b915050610921565b5081819350935050509091565b60026020528060005260406000206000915054906101000a900460ff1681565b60076020528060005260406000206000915090505481565b60096020528060005260406000206000915090508054610ab5906126a2565b80601f0160208091040260200160405190810160405280929190818152602001828054610ae1906126a2565b8015610b2e5780601f10610b0357610100808354040283529160200191610b2e565b820191906000526020600020905b815481529060010190602001808311610b1157829003601f168201915b505050505081565b600c5481565b6001600260003373ffffffffffffffffffffffffffffffffffffffff1673ffffffffffffffffffffffffffffffffffffffff16815260200190815260200160002060006101000a81548160ff0219169083151502179055610bd2576040517f08c379a0000000000000000000000000000000000000000000000000000000008152600401610bc990612745565b60405180910390fd5b6000600160003373ffffffffffffffffffffffffffffffffffffffff1673ffffffffffffffffffffffffffffffffffffffff16815260200190815260200160002054905060008111610c59576040517f08c379a0000000000000000000000000000000000000000000000000000000008152600401610c50906127d7565b60405180910390fd5b6000600160003373ffffffffffffffffffffffffffffffffffffffff1673ffffffffffffffffffffffffffffffffffffffff168152602001908152602001600020819055503373ffffffffffffffffffffffffffffffffffffffff166108fc829081150290604051600060405180830381858888f19350505050158015610ce4573d6000803e3d6000fd5b5050565b600b5481565b60046020528060005260406000206000915054906101000a900460ff1681565b60008054906101000a900473ffffffffffffffffffffffffffffffffffffffff1673ffffffffffffffffffffffffffffffffffffffff163373ffffffffffffffffffffffffffffffffffffffff1614610d9c576040517f08c379a0000000000000000000000000000000000000000000000000000000008152600401610d9390612843565b60405180910390fd5b600260008373ffffffffffffffffffffffffffffffffffffffff1673ffffffffffffffffffffffffffffffffffffffff16815260200190815260200160002060009054906101000a900460ff1615610e29576040517f08c379a0000000000000000000000000000000000000000000000000000000008152600401610e20906128af565b60405180910390fd5b6001600260008473ffffffffffffffffffffffffffffffffffffffff1673ffffffffffffffffffffffffffffffffffffffff16815260200190815260200160002060006101000a81548160ff02191690831515021790555080600960008473ffffffffffffffffffffffffffffffffffffffff1673ffffffffffffffffffffffffffffffffffffffff1681526020019081526020016000209081610ecd9190612a7b565b506000600c6000815480929190610ee3906125fc565b919050559050826003600083815260200190815260200160002060006101000a81548173ffffffffffffffffffffffffffffffffffffffff021916908373ffffffffffffffffffffffffffffffffffffffff16021790555081600a60008381526020019081526020016000209081610f5b9190612a7b565b506000600860008573ffffffffffffffffffffffffffffffffffffffff1673ffffffffffffffffffffffffffffffffffffffff168152602001908152602001600020819055506000600160008573ffffffffffffffffffffffffffffffffffffffff1673ffffffffffffffffffffffffffffffffffffffff168152602001908152602001600020819055506000600760008573ffffffffffffffffffffffffffffffffffffffff1673ffffffffffffffffffffffffffffffffffffffff16815260200190815260200160002081905550505050565b6060806000600c5467ffffffffffffffff81111561105157611050612173565b5b60405190808252806020026020018201604052801561107f5781602001602082028036833780820191505090505b5090506000600c5467ffffffffffffffff8111156110a05761109f612173565b5b6040519080825280602002602001820160405280156110ce5781602001602082028036833780820191505090505b50905060005b600c54811015611204576003600082815260200190815260200160002060009054906101000a900473ffffffffffffffffffffffffffffffffffffffff1683828151811061112557611124612644565b5b602002602001019073ffffffffffffffffffffffffffffffffffffffff16908173ffffffffffffffffffffffffffffffffffffffff1681525050600760006003600084815260200190815260200160002060009054906101000a900473ffffffffffffffffffffffffffffffffffffffff1673ffffffffffffffffffffffffffffffffffffffff1673ffffffffffffffffffffffffffffffffffffffff168152602001908152602001600020548282815181106111e5576111e4612644565b5b60200260200101818152505080806111fc906125fc565b9150506110d4565b5081819350935050509091565b60606000600b5467ffffffffffffffff81111561123157611230612173565b5b60405190808252806020026020018201604052801561125f5781602001602082028036833780820191505090505b50905060005b600b54811015611303576005600082815260200190815260200160002060009054906101000a900473ffffffffffffffffffffffffffffffffffffffff168282815181106112b6576112b5612644565b5b602002602001019073ffffffffffffffffffffffffffffffffffffffff16908173ffffffffffffffffffffffffffffffffffffffff168152505080806112fb906125fc565b915050611265565b508091505090565b6060806000600b5467ffffffffffffffff81111561132c5761132b612173565b5b60405190808252806020026020018201604052801561135a5781602001602082028036833780820191505090505b5090506000600b5467ffffffffffffffff81111561137b5761137a612173565b5b6040519080825280602002602001820160405280156113a95781602001602082028036833780820191505090505b50905060005b600b548110156114df576005600082815260200190815260200160002060009054906101000a900473ffffffffffffffffffffffffffffffffffffffff16838281518110611400576113ff612644565b5b602002602001019073ffffffffffffffffffffffffffffffffffffffff16908173ffffffffffffffffffffffffffffffffffffffff1681525050600660006005600084815260200190815260200160002060009054906101000a900473ffffffffffffffffffffffffffffffffffffffff1673ffffffffffffffffffffffffffffffffffffffff1673ffffffffffffffffffffffffffffffffffffffff168152602001908152602001600020548282815181106114c0576114bf612644565b5b60200260200101818152505080806114d7906125fc565b9150506113af565b5081819350935050509091565b60066020528060005260406000206000915090505481565b60008054906101000a900473ffffffffffffffffffffffffffffffffffffffff1673ffffffffffffffffffffffffffffffffffffffff163373ffffffffffffffffffffffffffffffffffffffff1614611592576040517f08c379a000000000000000000000000000000000000000000000000000000000815260040161158990612bbf565b60405180910390fd5b6000805b600c548110156118a157600860006003600084815260200190815260200160002060009054906101000a900473ffffffffffffffffffffffffffffffffffffffff1673ffffffffffffffffffffffffffffffffffffffff1673ffffffffffffffffffffffffffffffffffffffff16815260200190815260200160002054600160006003600085815260200190815260200160002060009054906101000a900473ffffffffffffffffffffffffffffffffffffffff1673ffffffffffffffffffffffffffffffffffffffff1673ffffffffffffffffffffffffffffffffffffffff168152602001908152602001600020600082825461169491906125c8565b92505081905550600860006003600084815260200190815260200160002060009054906101000a900473ffffffffffffffffffffffffffffffffffffffff1673ffffffffffffffffffffffffffffffffffffffff1673ffffffffffffffffffffffffffffffffffffffff16815260200190815260200160002054600760006003600085815260200190815260200160002060009054906101000a900473ffffffffffffffffffffffffffffffffffffffff1673ffffffffffffffffffffffffffffffffffffffff1673ffffffffffffffffffffffffffffffffffffffff168152602001908152602001600020600082825461178f91906125c8565b92505081905550600860006003600084815260200190815260200160002060009054906101000a900473ffffffffffffffffffffffffffffffffffffffff1673ffffffffffffffffffffffffffffffffffffffff1673ffffffffffffffffffffffffffffffffffffffff168152602001908152602001600020548261181491906125c8565b91506000600860006003600085815260200190815260200160002060009054906101000a900473ffffffffffffffffffffffffffffffffffffffff1673ffffffffffffffffffffffffffffffffffffffff1673ffffffffffffffffffffffffffffffffffffffff168152602001908152602001600020819055508080611899906125fc565b915050611596565b508034146118e4576040517f08c379a00000000000000000000000000000000000000000000000000000000081526004016118db90612c51565b60405180910390fd5b50565b6060806000600c5467ffffffffffffffff81111561190857611907612173565b5b6040519080825280602002602001820160405280156119365781602001602082028036833780820191505090505b5090506000600c5467ffffffffffffffff81111561195757611956612173565b5b6040519080825280602002602001820160405280156119855781602001602082028036833780820191505090505b50905060005b600c54811015611abb576003600082815260200190815260200160002060009054906101000a900473ffffffffffffffffffffffffffffffffffffffff168382815181106119dc576119db612644565b5b602002602001019073ffffffffffffffffffffffffffffffffffffffff16908173ffffffffffffffffffffffffffffffffffffffff1681525050600160006003600084815260200190815260200160002060009054906101000a900473ffffffffffffffffffffffffffffffffffffffff1673ffffffffffffffffffffffffffffffffffffffff1673ffffffffffffffffffffffffffffffffffffffff16815260200190815260200160002054828281518110611a9c57611a9b612644565b5b6020026020010181815250508080611ab3906125fc565b91505061198b565b5081819350935050509091565b6060806000600c5467ffffffffffffffff811115611ae957611ae8612173565b5b604051908082528060200260200182016040528015611b175781602001602082028036833780820191505090505b5090506000600c5467ffffffffffffffff811115611b3857611b37612173565b5b604051908082528060200260200182016040528015611b6b57816020015b6060815260200190600190039081611b565790505b50905060005b600c54811015611cc9576003600082815260200190815260200160002060009054906101000a900473ffffffffffffffffffffffffffffffffffffffff16838281518110611bc257611bc1612644565b5b602002602001019073ffffffffffffffffffffffffffffffffffffffff16908173ffffffffffffffffffffffffffffffffffffffff1681525050600a60008281526020019081526020016000208054611c1a906126a2565b80601f0160208091040260200160405190810160405280929190818152602001828054611c46906126a2565b8015611c935780601f10611c6857610100808354040283529160200191611c93565b820191906000526020600020905b815481529060010190602001808311611c7657829003601f168201915b5050505050828281518110611cab57611caa612644565b5b60200260200101819052508080611cc1906125fc565b915050611b71565b5081819350935050509091565b60016020528060005260406000206000915090505481565b60008054906101000a900473ffffffffffffffffffffffffffffffffffffffff1681565b60008054906101000a900473ffffffffffffffffffffffffffffffffffffffff1673ffffffffffffffffffffffffffffffffffffffff163373ffffffffffffffffffffffffffffffffffffffff1614611da0576040517f08c379a0000000000000000000000000000000000000000000000000000000008152600401611d9790612ce3565b60405180910390fd5b806000806101000a81548173ffffffffffffffffffffffffffffffffffffffff021916908373ffffffffffffffffffffffffffffffffffffffff16021790555050565b60086020528060005260406000206000915090505481565b6000604051905090565b600080fd5b600080fd5b600073ffffffffffffffffffffffffffffffffffffffff82169050919050565b6000611e3a82611e0f565b9050919050565b611e4a81611e2f565b8114611e5557600080fd5b50565b600081359050611e6781611e41565b92915050565b600060208284031215611e8357611e82611e05565b5b6000611e9184828501611e58565b91505092915050565b600081519050919050565b600082825260208201905092915050565b6000819050602082019050919050565b611ecf81611e2f565b82525050565b6000611ee18383611ec6565b60208301905092915050565b6000602082019050919050565b6000611f0582611e9a565b611f0f8185611ea5565b9350611f1a83611eb6565b8060005b83811015611f4b578151611f328882611ed5565b9750611f3d83611eed565b925050600181019050611f1e565b5085935050505092915050565b600081519050919050565b600082825260208201905092915050565b6000819050602082019050919050565b6000819050919050565b611f9781611f84565b82525050565b6000611fa98383611f8e565b60208301905092915050565b6000602082019050919050565b6000611fcd82611f58565b611fd78185611f63565b9350611fe283611f74565b8060005b83811015612013578151611ffa8882611f9d565b975061200583611fb5565b925050600181019050611fe6565b5085935050505092915050565b6000604082019050818103600083015261203a8185611efa565b9050818103602083015261204e8184611fc2565b90509392505050565b60008115159050919050565b61206c81612057565b82525050565b60006020820190506120876000830184612063565b92915050565b61209681611f84565b82525050565b60006020820190506120b1600083018461208d565b92915050565b600081519050919050565b600082825260208201905092915050565b60005b838110156120f15780820151818401526020810190506120d6565b60008484015250505050565b6000601f19601f8301169050919050565b6000612119826120b7565b61212381856120c2565b93506121338185602086016120d3565b61213c816120fd565b840191505092915050565b60006020820190508181036000830152612161818461210e565b905092915050565b600080fd5b600080fd5b7f4e487b7100000000000000000000000000000000000000000000000000000000600052604160045260246000fd5b6121ab826120fd565b810181811067ffffffffffffffff821117156121ca576121c9612173565b5b80604052505050565b60006121dd611dfb565b90506121e982826121a2565b919050565b600067ffffffffffffffff82111561220957612208612173565b5b612212826120fd565b9050602081019050919050565b82818337600083830152505050565b600061224161223c846121ee565b6121d3565b90508281526020810184848401111561225d5761225c61216e565b5b61226884828561221f565b509392505050565b600082601f83011261228557612284612169565b5b813561229584826020860161222e565b91505092915050565b600080604083850312156122b5576122b4611e05565b5b60006122c385828601611e58565b925050602083013567ffffffffffffffff8111156122e4576122e3611e0a565b5b6122f085828601612270565b9150509250929050565b600060208201905081810360008301526123148184611efa565b905092915050565b600081519050919050565b600082825260208201905092915050565b6000819050602082019050919050565b600082825260208201905092915050565b6000612364826120b7565b61236e8185612348565b935061237e8185602086016120d3565b612387816120fd565b840191505092915050565b600061239e8383612359565b905092915050565b6000602082019050919050565b60006123be8261231c565b6123c88185612327565b9350836020820285016123da85612338565b8060005b8581101561241657848403895281516123f78582612392565b9450612402836123a6565b925060208a019950506001810190506123de565b50829750879550505050505092915050565b600060408201905081810360008301526124428185611efa565b9050818103602083015261245681846123b3565b90509392505050565b600061246a82611e0f565b9050919050565b61247a8161245f565b82525050565b60006020820190506124956000830184612471565b92915050565b7f496e76616c6964206368617269747920616464726573732e0000000000000000600082015250565b60006124d16018836120c2565b91506124dc8261249b565b602082019050919050565b60006020820190508181036000830152612500816124c4565b9050919050565b7f446f6e6174696f6e20616d6f756e74206d75737420626520677265617465722060008201527f7468616e20302e00000000000000000000000000000000000000000000000000602082015250565b60006125636027836120c2565b915061256e82612507565b604082019050919050565b6000602082019050818103600083015261259281612556565b9050919050565b7f4e487b7100000000000000000000000000000000000000000000000000000000600052601160045260246000fd5b60006125d382611f84565b91506125de83611f84565b92508282019050808211156125f6576125f5612599565b5b92915050565b600061260782611f84565b91507fffffffffffffffffffffffffffffffffffffffffffffffffffffffffffffffff820361263957612638612599565b5b600182019050919050565b7f4e487b7100000000000000000000000000000000000000000000000000000000600052603260045260246000fd5b7f4e487b7100000000000000000000000000000000000000000000000000000000600052602260045260246000fd5b600060028204905060018216806126ba57607f821691505b6020821081036126cd576126cc612673565b5b50919050565b7f596f7520617265206e6f74206f6e65206f66207468652063686172697469657360008201527f2e00000000000000000000000000000000000000000000000000000000000000602082015250565b600061272f6021836120c2565b915061273a826126d3565b604082019050919050565b6000602082019050818103600083015261275e81612722565b9050919050565b7f4e6f2066756e647320617661696c61626c6520666f722077697468647261776160008201527f6c2e000000000000000000000000000000000000000000000000000000000000602082015250565b60006127c16022836120c2565b91506127cc82612765565b604082019050919050565b600060208201905081810360008301526127f0816127b4565b9050919050565b7f4f6e6c7920746865206f776e65722063616e20646f2074686174000000000000600082015250565b600061282d601a836120c2565b9150612838826127f7565b602082019050919050565b6000602082019050818103600083015261285c81612820565b9050919050565b7f54686973206368617269747920616c7265616479206578697374210000000000600082015250565b6000612899601b836120c2565b91506128a482612863565b602082019050919050565b600060208201905081810360008301526128c88161288c565b9050919050565b60008190508160005260206000209050919050565b60006020601f8301049050919050565b600082821b905092915050565b6000600883026129317fffffffffffffffffffffffffffffffffffffffffffffffffffffffffffffffff826128f4565b61293b86836128f4565b95508019841693508086168417925050509392505050565b6000819050919050565b600061297861297361296e84611f84565b612953565b611f84565b9050919050565b6000819050919050565b6129928361295d565b6129a661299e8261297f565b848454612901565b825550505050565b600090565b6129bb6129ae565b6129c6818484612989565b505050565b5b818110156129ea576129df6000826129b3565b6001810190506129cc565b5050565b601f821115612a2f57612a00816128cf565b612a09846128e4565b81016020851015612a18578190505b612a2c612a24856128e4565b8301826129cb565b50505b505050565b600082821c905092915050565b6000612a5260001984600802612a34565b1980831691505092915050565b6000612a6b8383612a41565b9150826002028217905092915050565b612a84826120b7565b67ffffffffffffffff811115612a9d57612a9c612173565b5b612aa782546126a2565b612ab28282856129ee565b600060209050601f831160018114612ae55760008415612ad3578287015190505b612add8582612a5f565b865550612b45565b601f198416612af3866128cf565b60005b82811015612b1b57848901518255600182019150602085019450602081019050612af6565b86831015612b385784890151612b34601f891682612a41565b8355505b6001600288020188555050505b505050505050565b7f4f6e6c792074686520636f6e7472616374206f776e65722063616e206164642060008201527f6368617269746965732e00000000000000000000000000000000000000000000602082015250565b6000612ba9602a836120c2565b9150612bb482612b4d565b604082019050919050565b60006020820190508181036000830152612bd881612b9c565b9050919050565b7f5468652065786163746c79206d61746368656420616d6f756e74206e6565642060008201527f746f2062652064656c69766572642e0000000000000000000000000000000000602082015250565b6000612c3b602f836120c2565b9150612c4682612bdf565b604082019050919050565b60006020820190508181036000830152612c6a81612c2e565b9050919050565b7f4f6e6c792074686520636f6e7472616374206f776e65722063616e206368616e60008201527f67652074686520636f6e7472616374206f776e65722e00000000000000000000602082015250565b6000612ccd6036836120c2565b9150612cd882612c71565b604082019050919050565b60006020820190508181036000830152612cfc81612cc0565b905091905056fea264697066735822122042da30ea5b0bae6303051c37200600a6c194dce0a2486d3fff538593cb6acc4564736f6c63430008110033",
  "immutableReferences": {},
  "source": "// SPDX-License-Identifier: MIT\r\npragma solidity ^0.8.0;\r\n\r\ncontract CharityDonation {\r\n    address payable public contractOwner;\r\n    mapping(address => uint) public donations;\r\n    mapping(address => bool) public charities;\r\n    mapping(uint => address) private lutCharities;\r\n    mapping(address => bool) public Donors;\r\n    mapping(uint => address) private lutDonors;\r\n    mapping(address => uint) public totalDonationsByDonor;\r\n    mapping(address => uint) public totalDonationsByCharity;\r\n    mapping(address => uint) public charitiesMatchedAmount;\r\n    mapping(address => string) public charitiesNames;\r\n    mapping(uint => string) private lutCharitiesNames;\r\n\r\n    uint public numberOfDonors;\r\n    uint public numberOfCharities;\r\n\r\n    constructor() {\r\n        contractOwner = payable(msg.sender); \r\n    }\r\n\r\n    function transferOwnership(address newOwner) external {\r\n        require(msg.sender == contractOwner, \"Only the contract owner can change the contract owner.\");\r\n        contractOwner = payable(newOwner);\r\n    }\r\n\r\n    modifier onlyOwner(){\r\n        require(msg.sender == contractOwner, \"Only the owner can do that\");\r\n        _;\r\n    }\r\n\r\n    function addCharity( address _charity , string memory _charityName ) public onlyOwner {\r\n        require(!charities[_charity], \"This charity already exist!\");\r\n        \r\n            charities[_charity] = true;\r\n            charitiesNames[_charity] = _charityName;\r\n            uint charitiesIndex = numberOfCharities++;\r\n            lutCharities[charitiesIndex] = _charity;\r\n            lutCharitiesNames[charitiesIndex] = _charityName;\r\n            charitiesMatchedAmount[_charity] = 0;\r\n            donations[_charity] = 0;\r\n            totalDonationsByCharity[_charity] = 0;\r\n            \r\n    }\r\n\r\n    // The donation function\r\n    function donate(address _charity) public payable {\r\n        require(charities[_charity], \"Invalid charity address.\");\r\n        require(msg.value > 0, \"Donation amount must be greater than 0.\");\r\n        uint matchedAmount = msg.value;\r\n        charitiesMatchedAmount[_charity] += matchedAmount;\r\n        if (!Donors[msg.sender]){\r\n            uint DonorsIndex = numberOfDonors++;\r\n            Donors[msg.sender]=true;\r\n            lutDonors[DonorsIndex]=msg.sender;\r\n             totalDonationsByDonor[msg.sender] = 0;\r\n        }\r\n        donations[_charity] += msg.value;\r\n        totalDonationsByDonor[msg.sender] += msg.value;\r\n        totalDonationsByCharity[_charity] += msg.value;\r\n    }\r\n\r\n    //Show all the amount (split by charities) the contract's owner need to match \r\n    function getAllCharitiesAndMatchedAmount() public view returns(address[] memory,uint[] memory) {\r\n        address[] memory _Charities = new address[](numberOfCharities);\r\n        uint[] memory _MatchedAmounts = new uint[](numberOfCharities);\r\n        for(uint i=0; i<numberOfCharities; i++){\r\n            _Charities[i]=lutCharities[i];\r\n            _MatchedAmounts[i]=charitiesMatchedAmount[lutCharities[i]];\r\n        }\r\n        return (_Charities,_MatchedAmounts );\r\n    }\r\n\r\n    //Function for the contract's owner to pay all matched amounts\r\n    function matchTheDonations() public payable {\r\n        require(msg.sender == contractOwner, \"Only the contract owner can add charities.\");\r\n        uint sumOfMatchedAmount=0;\r\n        for(uint i=0; i<numberOfCharities; i++){\r\n            donations[lutCharities[i]] += charitiesMatchedAmount[lutCharities[i]];\r\n            totalDonationsByCharity[lutCharities[i]] += charitiesMatchedAmount[lutCharities[i]];\r\n            sumOfMatchedAmount += charitiesMatchedAmount[lutCharities[i]];\r\n            charitiesMatchedAmount[lutCharities[i]] = 0;\r\n        }\r\n        require(msg.value == sumOfMatchedAmount, \"The exactly matched amount need to be deliverd.\");\r\n    }\r\n\r\n    //Show all charities\r\n    function getAllCharities() public view returns(address[] memory , string[] memory ) {\r\n        address[] memory _Charities = new address[](numberOfCharities);\r\n        string[] memory  _CharitiesNames = new string[](numberOfCharities);\r\n        for(uint i=0; i<numberOfCharities; i++){\r\n            _Charities[i]=lutCharities[i];\r\n             _CharitiesNames[i] = lutCharitiesNames[i];\r\n        }\r\n        return (_Charities, _CharitiesNames );    \r\n    }\r\n    \r\n    //Shows all donors\r\n    function getAllDonors() public view returns(address[] memory) {\r\n        address[] memory _Donors = new address[](numberOfDonors);\r\n        for(uint i=0; i<numberOfDonors; i++){\r\n            _Donors[i]=lutDonors[i];\r\n        }\r\n        return _Donors;\r\n    }\r\n\r\n    //Shows all donors and their donations\r\n    function getAllDonorsAndDonations() public view returns(address[] memory,uint[] memory) {\r\n        address[] memory _Donors = new address[](numberOfDonors);\r\n        uint[] memory _Donations = new uint[](numberOfDonors);\r\n        for(uint i=0; i<numberOfDonors; i++){\r\n            _Donors[i]=lutDonors[i];\r\n            _Donations[i]=totalDonationsByDonor[lutDonors[i]];\r\n        }\r\n        return (_Donors,_Donations );\r\n    }\r\n\r\n    //Shows all charities and their current donation balance\r\n    function getAllCharitiesAndDonations() public view returns(address[] memory,uint[] memory) {\r\n        address[] memory _Charities = new address[](numberOfCharities);\r\n        uint[] memory _Donations = new uint[](numberOfCharities);\r\n        for(uint i=0; i<numberOfCharities; i++){\r\n            _Charities[i]=lutCharities[i];\r\n            _Donations[i]=donations[lutCharities[i]];\r\n        }\r\n        return (_Charities,_Donations);\r\n    }\r\n\r\n    //Shows all charities and their total donation balance ever\r\n     function getAllCharitiesAndTotalDonationsByCharity() public view returns(address[] memory,uint[] memory) {\r\n        address[] memory _Charities = new address[](numberOfCharities);\r\n        uint[] memory _TotalDonationsByCharity = new uint[](numberOfCharities);\r\n        for(uint i=0; i<numberOfCharities; i++){\r\n            _Charities[i]=lutCharities[i];\r\n            _TotalDonationsByCharity[i]=totalDonationsByCharity[lutCharities[i]];\r\n        }\r\n        return (_Charities,_TotalDonationsByCharity);\r\n    }\r\n\r\n    //Withdraw function for the charities to withdraw all their current donations\r\n    function withdraw() public {\r\n        require(charities[msg.sender] = true, \"You are not one of the charities.\");\r\n        uint amount = donations[msg.sender];\r\n        require(amount > 0, \"No funds available for withdrawal.\");\r\n        donations[msg.sender] = 0;\r\n        payable(msg.sender).transfer(amount);\r\n    }\r\n\r\n\r\n}\r\n\r\n\r\n// const instance = await CharityDonation.deployed()\r\n// instance.addCharity(\"0x197455e3eEf7dA7302ac524a97e3Ca041cEd154D\",\"Moses's Charity\") \r\n// instance.getAllCharities()",
  "sourcePath": "C:\\Users\\Almog Yosef Zamir\\Desktop\\  \\Codes Folder\\donations_react\\contracts\\CharityDonation.sol",
  "compiler": {
    "name": "solc",
    "version": "0.8.17+commit.8df45f5f.Emscripten.clang"
  },
  "schemaVersion": "3.4.11",
  "updatedAt": "2023-03-17T17:03:23.264Z",
  "networkType": "ethereum",
  "devdoc": {
    "kind": "dev",
    "methods": {},
    "version": 1
  },
  "userdoc": {
    "kind": "user",
    "methods": {},
    "version": 1
  }
}