{
  "contractName": "CharityDonation",
  "abi": [
    {
      "inputs": [],
      "stateMutability": "nonpayable",
      "type": "constructor"
    },
    {
      "inputs": [
        {
          "internalType": "address",
          "name": "",
          "type": "address"
        }
      ],
      "name": "Donors",
      "outputs": [
        {
          "internalType": "bool",
          "name": "",
          "type": "bool"
        }
      ],
      "stateMutability": "view",
      "type": "function",
      "constant": true
    },
    {
      "inputs": [
        {
          "internalType": "address",
          "name": "",
          "type": "address"
        }
      ],
      "name": "charities",
      "outputs": [
        {
          "internalType": "bool",
          "name": "",
          "type": "bool"
        }
      ],
      "stateMutability": "view",
      "type": "function",
      "constant": true
    },
    {
      "inputs": [
        {
          "internalType": "address",
          "name": "",
          "type": "address"
        }
      ],
      "name": "charitiesMatchedAmount",
      "outputs": [
        {
          "internalType": "uint256",
          "name": "",
          "type": "uint256"
        }
      ],
      "stateMutability": "view",
      "type": "function",
      "constant": true
    },
    {
      "inputs": [
        {
          "internalType": "address",
          "name": "",
          "type": "address"
        }
      ],
      "name": "charitiesNames",
      "outputs": [
        {
          "internalType": "string",
          "name": "",
          "type": "string"
        }
      ],
      "stateMutability": "view",
      "type": "function",
      "constant": true
    },
    {
      "inputs": [],
      "name": "contractOwner",
      "outputs": [
        {
          "internalType": "address payable",
          "name": "",
          "type": "address"
        }
      ],
      "stateMutability": "view",
      "type": "function",
      "constant": true
    },
    {
      "inputs": [
        {
          "internalType": "address",
          "name": "",
          "type": "address"
        }
      ],
      "name": "donations",
      "outputs": [
        {
          "internalType": "uint256",
          "name": "",
          "type": "uint256"
        }
      ],
      "stateMutability": "view",
      "type": "function",
      "constant": true
    },
    {
      "inputs": [],
      "name": "numberOfCharities",
      "outputs": [
        {
          "internalType": "uint256",
          "name": "",
          "type": "uint256"
        }
      ],
      "stateMutability": "view",
      "type": "function",
      "constant": true
    },
    {
      "inputs": [],
      "name": "numberOfDonors",
      "outputs": [
        {
          "internalType": "uint256",
          "name": "",
          "type": "uint256"
        }
      ],
      "stateMutability": "view",
      "type": "function",
      "constant": true
    },
    {
      "inputs": [
        {
          "internalType": "address",
          "name": "",
          "type": "address"
        }
      ],
      "name": "totalDonationsByCharity",
      "outputs": [
        {
          "internalType": "uint256",
          "name": "",
          "type": "uint256"
        }
      ],
      "stateMutability": "view",
      "type": "function",
      "constant": true
    },
    {
      "inputs": [
        {
          "internalType": "address",
          "name": "",
          "type": "address"
        }
      ],
      "name": "totalDonationsByDonor",
      "outputs": [
        {
          "internalType": "uint256",
          "name": "",
          "type": "uint256"
        }
      ],
      "stateMutability": "view",
      "type": "function",
      "constant": true
    },
    {
      "inputs": [
        {
          "internalType": "address",
          "name": "newOwner",
          "type": "address"
        }
      ],
      "name": "transferOwnership",
      "outputs": [],
      "stateMutability": "nonpayable",
      "type": "function"
    },
    {
      "inputs": [],
      "name": "contractOwnerAddress",
      "outputs": [
        {
          "internalType": "address",
          "name": "",
          "type": "address"
        }
      ],
      "stateMutability": "view",
      "type": "function",
      "constant": true
    },
    {
      "inputs": [
        {
          "internalType": "address",
          "name": "_charity",
          "type": "address"
        },
        {
          "internalType": "string",
          "name": "_charityName",
          "type": "string"
        }
      ],
      "name": "addCharity",
      "outputs": [],
      "stateMutability": "nonpayable",
      "type": "function"
    },
    {
      "inputs": [
        {
          "internalType": "address",
          "name": "_charity",
          "type": "address"
        }
      ],
      "name": "donate",
      "outputs": [],
      "stateMutability": "payable",
      "type": "function",
      "payable": true
    },
    {
      "inputs": [],
      "name": "getAllCharitiesAndMatchedAmount",
      "outputs": [
        {
          "internalType": "address[]",
          "name": "",
          "type": "address[]"
        },
        {
          "internalType": "uint256[]",
          "name": "",
          "type": "uint256[]"
        },
        {
          "internalType": "uint256",
          "name": "",
          "type": "uint256"
        }
      ],
      "stateMutability": "view",
      "type": "function",
      "constant": true
    },
    {
      "inputs": [],
      "name": "matchTheDonations",
      "outputs": [],
      "stateMutability": "payable",
      "type": "function",
      "payable": true
    },
    {
      "inputs": [],
      "name": "getAllCharities",
      "outputs": [
        {
          "internalType": "address[]",
          "name": "",
          "type": "address[]"
        },
        {
          "internalType": "string[]",
          "name": "",
          "type": "string[]"
        }
      ],
      "stateMutability": "view",
      "type": "function",
      "constant": true
    },
    {
      "inputs": [],
      "name": "getAllDonors",
      "outputs": [
        {
          "internalType": "address[]",
          "name": "",
          "type": "address[]"
        }
      ],
      "stateMutability": "view",
      "type": "function",
      "constant": true
    },
    {
      "inputs": [],
      "name": "getAllDonorsAndDonations",
      "outputs": [
        {
          "internalType": "address[]",
          "name": "",
          "type": "address[]"
        },
        {
          "internalType": "uint256[]",
          "name": "",
          "type": "uint256[]"
        }
      ],
      "stateMutability": "view",
      "type": "function",
      "constant": true
    },
    {
      "inputs": [],
      "name": "getAllCharitiesAndDonations",
      "outputs": [
        {
          "internalType": "address[]",
          "name": "",
          "type": "address[]"
        },
        {
          "internalType": "uint256[]",
          "name": "",
          "type": "uint256[]"
        }
      ],
      "stateMutability": "view",
      "type": "function",
      "constant": true
    },
    {
      "inputs": [],
      "name": "getAllCharitiesAndTotalDonationsByCharity",
      "outputs": [
        {
          "internalType": "address[]",
          "name": "",
          "type": "address[]"
        },
        {
          "internalType": "uint256[]",
          "name": "",
          "type": "uint256[]"
        }
      ],
      "stateMutability": "view",
      "type": "function",
      "constant": true
    },
    {
      "inputs": [],
      "name": "withdraw",
      "outputs": [],
      "stateMutability": "nonpayable",
      "type": "function"
    }
  ],
  "bytecode": "0x608060405234801561001057600080fd5b50336000806101000a81548173ffffffffffffffffffffffffffffffffffffffff021916908373ffffffffffffffffffffffffffffffffffffffff160217905550612c15806100606000396000f3fe6080604052600436106101345760003560e01c806398e36b04116100ab578063b5bbd2791161006f578063b5bbd27914610402578063cb44c5f31461042e578063cc6cb19a14610459578063ce606ee014610496578063f2fde38b146104c1578063f9d48290146104ea57610134565b806398e36b04146103385780639c08038f146103635780639c239d691461038f578063a0f73def146103cc578063afb3ae32146103d657610134565b8063303f0acb116100fd578063303f0acb146102395780633ccfd60b1461026457806364b2e2d91461027b5780636fd094f4146102a657806372f7bec8146102e35780639280e6b11461030c57610134565b8062362a951461013957806315c0fb43146101555780632478239a146101825780632503c960146101bf5780632573198d146101fc575b600080fd5b610153600480360381019061014e9190611e90565b610527565b005b34801561016157600080fd5b5061016a6108b4565b60405161017993929190612052565b60405180910390f35b34801561018e57600080fd5b506101a960048036038101906101a49190611e90565b610b1c565b6040516101b691906120b2565b60405180910390f35b3480156101cb57600080fd5b506101e660048036038101906101e19190611e90565b610b3c565b6040516101f391906120cd565b60405180910390f35b34801561020857600080fd5b50610223600480360381019061021e9190611e90565b610b54565b6040516102309190612178565b60405180910390f35b34801561024557600080fd5b5061024e610bf4565b60405161025b91906120cd565b60405180910390f35b34801561027057600080fd5b50610279610bfa565b005b34801561028757600080fd5b50610290610da6565b60405161029d91906120cd565b60405180910390f35b3480156102b257600080fd5b506102cd60048036038101906102c89190611e90565b610dac565b6040516102da91906120b2565b60405180910390f35b3480156102ef57600080fd5b5061030a600480360381019061030591906122cf565b610dcc565b005b34801561031857600080fd5b506103216110ee565b60405161032f92919061232b565b60405180910390f35b34801561034457600080fd5b5061034d6112cf565b60405161035a9190612362565b60405180910390f35b34801561036f57600080fd5b506103786113c9565b60405161038692919061232b565b60405180910390f35b34801561039b57600080fd5b506103b660048036038101906103b19190611e90565b6115aa565b6040516103c391906120cd565b60405180910390f35b6103d46115c2565b005b3480156103e257600080fd5b506103eb6118e1565b6040516103f992919061232b565b60405180910390f35b34801561040e57600080fd5b50610417611ac2565b604051610425929190612490565b60405180910390f35b34801561043a57600080fd5b50610443611cd0565b60405161045091906124d6565b60405180910390f35b34801561046557600080fd5b50610480600480360381019061047b9190611e90565b611cf9565b60405161048d91906120cd565b60405180910390f35b3480156104a257600080fd5b506104ab611d11565b6040516104b89190612512565b60405180910390f35b3480156104cd57600080fd5b506104e860048036038101906104e39190611e90565b611d35565b005b3480156104f657600080fd5b50610511600480360381019061050c9190611e90565b611e06565b60405161051e91906120cd565b60405180910390f35b600260008273ffffffffffffffffffffffffffffffffffffffff1673ffffffffffffffffffffffffffffffffffffffff16815260200190815260200160002060009054906101000a900460ff166105b3576040517f08c379a00000000000000000000000000000000000000000000000000000000081526004016105aa90612579565b60405180910390fd5b600034116105f6576040517f08c379a00000000000000000000000000000000000000000000000000000000081526004016105ed9061260b565b60405180910390fd5b600034905080600860008473ffffffffffffffffffffffffffffffffffffffff1673ffffffffffffffffffffffffffffffffffffffff168152602001908152602001600020600082825461064a919061265a565b92505081905550600460003373ffffffffffffffffffffffffffffffffffffffff1673ffffffffffffffffffffffffffffffffffffffff16815260200190815260200160002060009054906101000a900460ff166107ae576000600b60008154809291906106b79061268e565b9190505590506001600460003373ffffffffffffffffffffffffffffffffffffffff1673ffffffffffffffffffffffffffffffffffffffff16815260200190815260200160002060006101000a81548160ff021916908315150217905550336005600083815260200190815260200160002060006101000a81548173ffffffffffffffffffffffffffffffffffffffff021916908373ffffffffffffffffffffffffffffffffffffffff1602179055506000600660003373ffffffffffffffffffffffffffffffffffffffff1673ffffffffffffffffffffffffffffffffffffffff16815260200190815260200160002081905550505b34600160008473ffffffffffffffffffffffffffffffffffffffff1673ffffffffffffffffffffffffffffffffffffffff16815260200190815260200160002060008282546107fd919061265a565b9250508190555034600660003373ffffffffffffffffffffffffffffffffffffffff1673ffffffffffffffffffffffffffffffffffffffff1681526020019081526020016000206000828254610853919061265a565b9250508190555034600760008473ffffffffffffffffffffffffffffffffffffffff1673ffffffffffffffffffffffffffffffffffffffff16815260200190815260200160002060008282546108a9919061265a565b925050819055505050565b606080600080600c5467ffffffffffffffff8111156108d6576108d56121a4565b5b6040519080825280602002602001820160405280156109045781602001602082028036833780820191505090505b5090506000600c5467ffffffffffffffff811115610925576109246121a4565b5b6040519080825280602002602001820160405280156109535781602001602082028036833780820191505090505b5090506000805b600c54811015610b0a576003600082815260200190815260200160002060009054906101000a900473ffffffffffffffffffffffffffffffffffffffff168482815181106109ab576109aa6126d6565b5b602002602001019073ffffffffffffffffffffffffffffffffffffffff16908173ffffffffffffffffffffffffffffffffffffffff1681525050600860006003600084815260200190815260200160002060009054906101000a900473ffffffffffffffffffffffffffffffffffffffff1673ffffffffffffffffffffffffffffffffffffffff1673ffffffffffffffffffffffffffffffffffffffff16815260200190815260200160002054838281518110610a6b57610a6a6126d6565b5b602002602001018181525050600860006003600084815260200190815260200160002060009054906101000a900473ffffffffffffffffffffffffffffffffffffffff1673ffffffffffffffffffffffffffffffffffffffff1673ffffffffffffffffffffffffffffffffffffffff1681526020019081526020016000205482610af5919061265a565b91508080610b029061268e565b91505061095a565b50828282955095509550505050909192565b60026020528060005260406000206000915054906101000a900460ff1681565b60076020528060005260406000206000915090505481565b60096020528060005260406000206000915090508054610b7390612734565b80601f0160208091040260200160405190810160405280929190818152602001828054610b9f90612734565b8015610bec5780601f10610bc157610100808354040283529160200191610bec565b820191906000526020600020905b815481529060010190602001808311610bcf57829003601f168201915b505050505081565b600c5481565b6001600260003373ffffffffffffffffffffffffffffffffffffffff1673ffffffffffffffffffffffffffffffffffffffff16815260200190815260200160002060006101000a81548160ff0219169083151502179055610c90576040517f08c379a0000000000000000000000000000000000000000000000000000000008152600401610c87906127d7565b60405180910390fd5b6000600160003373ffffffffffffffffffffffffffffffffffffffff1673ffffffffffffffffffffffffffffffffffffffff16815260200190815260200160002054905060008111610d17576040517f08c379a0000000000000000000000000000000000000000000000000000000008152600401610d0e90612869565b60405180910390fd5b6000600160003373ffffffffffffffffffffffffffffffffffffffff1673ffffffffffffffffffffffffffffffffffffffff168152602001908152602001600020819055503373ffffffffffffffffffffffffffffffffffffffff166108fc829081150290604051600060405180830381858888f19350505050158015610da2573d6000803e3d6000fd5b5050565b600b5481565b60046020528060005260406000206000915054906101000a900460ff1681565b60008054906101000a900473ffffffffffffffffffffffffffffffffffffffff1673ffffffffffffffffffffffffffffffffffffffff163373ffffffffffffffffffffffffffffffffffffffff1614610e5a576040517f08c379a0000000000000000000000000000000000000000000000000000000008152600401610e51906128d5565b60405180910390fd5b600260008373ffffffffffffffffffffffffffffffffffffffff1673ffffffffffffffffffffffffffffffffffffffff16815260200190815260200160002060009054906101000a900460ff1615610ee7576040517f08c379a0000000000000000000000000000000000000000000000000000000008152600401610ede90612941565b60405180910390fd5b6001600260008473ffffffffffffffffffffffffffffffffffffffff1673ffffffffffffffffffffffffffffffffffffffff16815260200190815260200160002060006101000a81548160ff02191690831515021790555080600960008473ffffffffffffffffffffffffffffffffffffffff1673ffffffffffffffffffffffffffffffffffffffff1681526020019081526020016000209081610f8b9190612b0d565b506000600c6000815480929190610fa19061268e565b919050559050826003600083815260200190815260200160002060006101000a81548173ffffffffffffffffffffffffffffffffffffffff021916908373ffffffffffffffffffffffffffffffffffffffff16021790555081600a600083815260200190815260200160002090816110199190612b0d565b506000600860008573ffffffffffffffffffffffffffffffffffffffff1673ffffffffffffffffffffffffffffffffffffffff168152602001908152602001600020819055506000600160008573ffffffffffffffffffffffffffffffffffffffff1673ffffffffffffffffffffffffffffffffffffffff168152602001908152602001600020819055506000600760008573ffffffffffffffffffffffffffffffffffffffff1673ffffffffffffffffffffffffffffffffffffffff16815260200190815260200160002081905550505050565b6060806000600c5467ffffffffffffffff81111561110f5761110e6121a4565b5b60405190808252806020026020018201604052801561113d5781602001602082028036833780820191505090505b5090506000600c5467ffffffffffffffff81111561115e5761115d6121a4565b5b60405190808252806020026020018201604052801561118c5781602001602082028036833780820191505090505b50905060005b600c548110156112c2576003600082815260200190815260200160002060009054906101000a900473ffffffffffffffffffffffffffffffffffffffff168382815181106111e3576111e26126d6565b5b602002602001019073ffffffffffffffffffffffffffffffffffffffff16908173ffffffffffffffffffffffffffffffffffffffff1681525050600760006003600084815260200190815260200160002060009054906101000a900473ffffffffffffffffffffffffffffffffffffffff1673ffffffffffffffffffffffffffffffffffffffff1673ffffffffffffffffffffffffffffffffffffffff168152602001908152602001600020548282815181106112a3576112a26126d6565b5b60200260200101818152505080806112ba9061268e565b915050611192565b5081819350935050509091565b60606000600b5467ffffffffffffffff8111156112ef576112ee6121a4565b5b60405190808252806020026020018201604052801561131d5781602001602082028036833780820191505090505b50905060005b600b548110156113c1576005600082815260200190815260200160002060009054906101000a900473ffffffffffffffffffffffffffffffffffffffff16828281518110611374576113736126d6565b5b602002602001019073ffffffffffffffffffffffffffffffffffffffff16908173ffffffffffffffffffffffffffffffffffffffff168152505080806113b99061268e565b915050611323565b508091505090565b6060806000600b5467ffffffffffffffff8111156113ea576113e96121a4565b5b6040519080825280602002602001820160405280156114185781602001602082028036833780820191505090505b5090506000600b5467ffffffffffffffff811115611439576114386121a4565b5b6040519080825280602002602001820160405280156114675781602001602082028036833780820191505090505b50905060005b600b5481101561159d576005600082815260200190815260200160002060009054906101000a900473ffffffffffffffffffffffffffffffffffffffff168382815181106114be576114bd6126d6565b5b602002602001019073ffffffffffffffffffffffffffffffffffffffff16908173ffffffffffffffffffffffffffffffffffffffff1681525050600660006005600084815260200190815260200160002060009054906101000a900473ffffffffffffffffffffffffffffffffffffffff1673ffffffffffffffffffffffffffffffffffffffff1673ffffffffffffffffffffffffffffffffffffffff1681526020019081526020016000205482828151811061157e5761157d6126d6565b5b60200260200101818152505080806115959061268e565b91505061146d565b5081819350935050509091565b60066020528060005260406000206000915090505481565b60008054906101000a900473ffffffffffffffffffffffffffffffffffffffff1673ffffffffffffffffffffffffffffffffffffffff163373ffffffffffffffffffffffffffffffffffffffff1614611650576040517f08c379a0000000000000000000000000000000000000000000000000000000008152600401611647906128d5565b60405180910390fd5b60005b600c548110156118de57600860006003600084815260200190815260200160002060009054906101000a900473ffffffffffffffffffffffffffffffffffffffff1673ffffffffffffffffffffffffffffffffffffffff1673ffffffffffffffffffffffffffffffffffffffff16815260200190815260200160002054600160006003600085815260200190815260200160002060009054906101000a900473ffffffffffffffffffffffffffffffffffffffff1673ffffffffffffffffffffffffffffffffffffffff1673ffffffffffffffffffffffffffffffffffffffff1681526020019081526020016000206000828254611751919061265a565b92505081905550600860006003600084815260200190815260200160002060009054906101000a900473ffffffffffffffffffffffffffffffffffffffff1673ffffffffffffffffffffffffffffffffffffffff1673ffffffffffffffffffffffffffffffffffffffff16815260200190815260200160002054600760006003600085815260200190815260200160002060009054906101000a900473ffffffffffffffffffffffffffffffffffffffff1673ffffffffffffffffffffffffffffffffffffffff1673ffffffffffffffffffffffffffffffffffffffff168152602001908152602001600020600082825461184c919061265a565b925050819055506000600860006003600085815260200190815260200160002060009054906101000a900473ffffffffffffffffffffffffffffffffffffffff1673ffffffffffffffffffffffffffffffffffffffff1673ffffffffffffffffffffffffffffffffffffffff1681526020019081526020016000208190555080806118d69061268e565b915050611653565b50565b6060806000600c5467ffffffffffffffff811115611902576119016121a4565b5b6040519080825280602002602001820160405280156119305781602001602082028036833780820191505090505b5090506000600c5467ffffffffffffffff811115611951576119506121a4565b5b60405190808252806020026020018201604052801561197f5781602001602082028036833780820191505090505b50905060005b600c54811015611ab5576003600082815260200190815260200160002060009054906101000a900473ffffffffffffffffffffffffffffffffffffffff168382815181106119d6576119d56126d6565b5b602002602001019073ffffffffffffffffffffffffffffffffffffffff16908173ffffffffffffffffffffffffffffffffffffffff1681525050600160006003600084815260200190815260200160002060009054906101000a900473ffffffffffffffffffffffffffffffffffffffff1673ffffffffffffffffffffffffffffffffffffffff1673ffffffffffffffffffffffffffffffffffffffff16815260200190815260200160002054828281518110611a9657611a956126d6565b5b6020026020010181815250508080611aad9061268e565b915050611985565b5081819350935050509091565b6060806000600c5467ffffffffffffffff811115611ae357611ae26121a4565b5b604051908082528060200260200182016040528015611b115781602001602082028036833780820191505090505b5090506000600c5467ffffffffffffffff811115611b3257611b316121a4565b5b604051908082528060200260200182016040528015611b6557816020015b6060815260200190600190039081611b505790505b50905060005b600c54811015611cc3576003600082815260200190815260200160002060009054906101000a900473ffffffffffffffffffffffffffffffffffffffff16838281518110611bbc57611bbb6126d6565b5b602002602001019073ffffffffffffffffffffffffffffffffffffffff16908173ffffffffffffffffffffffffffffffffffffffff1681525050600a60008281526020019081526020016000208054611c1490612734565b80601f0160208091040260200160405190810160405280929190818152602001828054611c4090612734565b8015611c8d5780601f10611c6257610100808354040283529160200191611c8d565b820191906000526020600020905b815481529060010190602001808311611c7057829003601f168201915b5050505050828281518110611ca557611ca46126d6565b5b60200260200101819052508080611cbb9061268e565b915050611b6b565b5081819350935050509091565b60008060009054906101000a900473ffffffffffffffffffffffffffffffffffffffff16905090565b60016020528060005260406000206000915090505481565b60008054906101000a900473ffffffffffffffffffffffffffffffffffffffff1681565b60008054906101000a900473ffffffffffffffffffffffffffffffffffffffff1673ffffffffffffffffffffffffffffffffffffffff163373ffffffffffffffffffffffffffffffffffffffff1614611dc3576040517f08c379a0000000000000000000000000000000000000000000000000000000008152600401611dba906128d5565b60405180910390fd5b806000806101000a81548173ffffffffffffffffffffffffffffffffffffffff021916908373ffffffffffffffffffffffffffffffffffffffff16021790555050565b60086020528060005260406000206000915090505481565b6000604051905090565b600080fd5b600080fd5b600073ffffffffffffffffffffffffffffffffffffffff82169050919050565b6000611e5d82611e32565b9050919050565b611e6d81611e52565b8114611e7857600080fd5b50565b600081359050611e8a81611e64565b92915050565b600060208284031215611ea657611ea5611e28565b5b6000611eb484828501611e7b565b91505092915050565b600081519050919050565b600082825260208201905092915050565b6000819050602082019050919050565b611ef281611e52565b82525050565b6000611f048383611ee9565b60208301905092915050565b6000602082019050919050565b6000611f2882611ebd565b611f328185611ec8565b9350611f3d83611ed9565b8060005b83811015611f6e578151611f558882611ef8565b9750611f6083611f10565b925050600181019050611f41565b5085935050505092915050565b600081519050919050565b600082825260208201905092915050565b6000819050602082019050919050565b6000819050919050565b611fba81611fa7565b82525050565b6000611fcc8383611fb1565b60208301905092915050565b6000602082019050919050565b6000611ff082611f7b565b611ffa8185611f86565b935061200583611f97565b8060005b8381101561203657815161201d8882611fc0565b975061202883611fd8565b925050600181019050612009565b5085935050505092915050565b61204c81611fa7565b82525050565b6000606082019050818103600083015261206c8186611f1d565b905081810360208301526120808185611fe5565b905061208f6040830184612043565b949350505050565b60008115159050919050565b6120ac81612097565b82525050565b60006020820190506120c760008301846120a3565b92915050565b60006020820190506120e26000830184612043565b92915050565b600081519050919050565b600082825260208201905092915050565b60005b83811015612122578082015181840152602081019050612107565b60008484015250505050565b6000601f19601f8301169050919050565b600061214a826120e8565b61215481856120f3565b9350612164818560208601612104565b61216d8161212e565b840191505092915050565b60006020820190508181036000830152612192818461213f565b905092915050565b600080fd5b600080fd5b7f4e487b7100000000000000000000000000000000000000000000000000000000600052604160045260246000fd5b6121dc8261212e565b810181811067ffffffffffffffff821117156121fb576121fa6121a4565b5b80604052505050565b600061220e611e1e565b905061221a82826121d3565b919050565b600067ffffffffffffffff82111561223a576122396121a4565b5b6122438261212e565b9050602081019050919050565b82818337600083830152505050565b600061227261226d8461221f565b612204565b90508281526020810184848401111561228e5761228d61219f565b5b612299848285612250565b509392505050565b600082601f8301126122b6576122b561219a565b5b81356122c684826020860161225f565b91505092915050565b600080604083850312156122e6576122e5611e28565b5b60006122f485828601611e7b565b925050602083013567ffffffffffffffff81111561231557612314611e2d565b5b612321858286016122a1565b9150509250929050565b600060408201905081810360008301526123458185611f1d565b905081810360208301526123598184611fe5565b90509392505050565b6000602082019050818103600083015261237c8184611f1d565b905092915050565b600081519050919050565b600082825260208201905092915050565b6000819050602082019050919050565b600082825260208201905092915050565b60006123cc826120e8565b6123d681856123b0565b93506123e6818560208601612104565b6123ef8161212e565b840191505092915050565b600061240683836123c1565b905092915050565b6000602082019050919050565b600061242682612384565b612430818561238f565b935083602082028501612442856123a0565b8060005b8581101561247e578484038952815161245f85826123fa565b945061246a8361240e565b925060208a01995050600181019050612446565b50829750879550505050505092915050565b600060408201905081810360008301526124aa8185611f1d565b905081810360208301526124be818461241b565b90509392505050565b6124d081611e52565b82525050565b60006020820190506124eb60008301846124c7565b92915050565b60006124fc82611e32565b9050919050565b61250c816124f1565b82525050565b60006020820190506125276000830184612503565b92915050565b7f496e76616c6964206368617269747920616464726573732e0000000000000000600082015250565b60006125636018836120f3565b915061256e8261252d565b602082019050919050565b6000602082019050818103600083015261259281612556565b9050919050565b7f446f6e6174696f6e20616d6f756e74206d75737420626520677265617465722060008201527f7468616e20302e00000000000000000000000000000000000000000000000000602082015250565b60006125f56027836120f3565b915061260082612599565b604082019050919050565b60006020820190508181036000830152612624816125e8565b9050919050565b7f4e487b7100000000000000000000000000000000000000000000000000000000600052601160045260246000fd5b600061266582611fa7565b915061267083611fa7565b92508282019050808211156126885761268761262b565b5b92915050565b600061269982611fa7565b91507fffffffffffffffffffffffffffffffffffffffffffffffffffffffffffffffff82036126cb576126ca61262b565b5b600182019050919050565b7f4e487b7100000000000000000000000000000000000000000000000000000000600052603260045260246000fd5b7f4e487b7100000000000000000000000000000000000000000000000000000000600052602260045260246000fd5b6000600282049050600182168061274c57607f821691505b60208210810361275f5761275e612705565b5b50919050565b7f596f7520617265206e6f74206f6e65206f66207468652063686172697469657360008201527f2e00000000000000000000000000000000000000000000000000000000000000602082015250565b60006127c16021836120f3565b91506127cc82612765565b604082019050919050565b600060208201905081810360008301526127f0816127b4565b9050919050565b7f4e6f2066756e647320617661696c61626c6520666f722077697468647261776160008201527f6c2e000000000000000000000000000000000000000000000000000000000000602082015250565b60006128536022836120f3565b915061285e826127f7565b604082019050919050565b6000602082019050818103600083015261288281612846565b9050919050565b7f4f6e6c7920746865206f776e65722063616e20646f2074686174000000000000600082015250565b60006128bf601a836120f3565b91506128ca82612889565b602082019050919050565b600060208201905081810360008301526128ee816128b2565b9050919050565b7f54686973206368617269747920616c7265616479206578697374210000000000600082015250565b600061292b601b836120f3565b9150612936826128f5565b602082019050919050565b6000602082019050818103600083015261295a8161291e565b9050919050565b60008190508160005260206000209050919050565b60006020601f8301049050919050565b600082821b905092915050565b6000600883026129c37fffffffffffffffffffffffffffffffffffffffffffffffffffffffffffffffff82612986565b6129cd8683612986565b95508019841693508086168417925050509392505050565b6000819050919050565b6000612a0a612a05612a0084611fa7565b6129e5565b611fa7565b9050919050565b6000819050919050565b612a24836129ef565b612a38612a3082612a11565b848454612993565b825550505050565b600090565b612a4d612a40565b612a58818484612a1b565b505050565b5b81811015612a7c57612a71600082612a45565b600181019050612a5e565b5050565b601f821115612ac157612a9281612961565b612a9b84612976565b81016020851015612aaa578190505b612abe612ab685612976565b830182612a5d565b50505b505050565b600082821c905092915050565b6000612ae460001984600802612ac6565b1980831691505092915050565b6000612afd8383612ad3565b9150826002028217905092915050565b612b16826120e8565b67ffffffffffffffff811115612b2f57612b2e6121a4565b5b612b398254612734565b612b44828285612a80565b600060209050601f831160018114612b775760008415612b65578287015190505b612b6f8582612af1565b865550612bd7565b601f198416612b8586612961565b60005b82811015612bad57848901518255600182019150602085019450602081019050612b88565b86831015612bca5784890151612bc6601f891682612ad3565b8355505b6001600288020188555050505b50505050505056fea2646970667358221220427b5464b9d611a470c531ae63f690af8c634ce1643d376198b72ffbbfdd681b64736f6c63430008110033",
  "immutableReferences": {},
  "source": "// SPDX-License-Identifier: MIT\r\npragma solidity ^0.8.0;\r\n\r\ncontract CharityDonation {\r\n    address payable public contractOwner;\r\n    mapping(address => uint) public donations;\r\n    mapping(address => bool) public charities;\r\n    mapping(uint => address) private lutCharities;\r\n    mapping(address => bool) public Donors;\r\n    mapping(uint => address) private lutDonors;\r\n    mapping(address => uint) public totalDonationsByDonor;\r\n    mapping(address => uint) public totalDonationsByCharity;\r\n    mapping(address => uint) public charitiesMatchedAmount;\r\n    mapping(address => string) public charitiesNames;\r\n    mapping(uint => string) private lutCharitiesNames;\r\n\r\n    uint public numberOfDonors;\r\n    uint public numberOfCharities;\r\n\r\n    constructor() {\r\n        contractOwner = payable(msg.sender); \r\n    }\r\n\r\n    modifier onlyOwner(){\r\n        require(msg.sender == contractOwner, \"Only the owner can do that\");\r\n        _;\r\n    }\r\n\r\n\r\n\r\n    function transferOwnership(address newOwner) external onlyOwner {\r\n        //require(msg.sender == contractOwner, \"Only the contract owner can change the contract owner.\");\r\n        contractOwner = payable(newOwner);\r\n    }\r\n\r\n    // View of the contract owner adrress\r\n    function contractOwnerAddress() public view returns(address ) {\r\n        \r\n        return (contractOwner );\r\n    }\r\n\r\n    //Add new charity to the contract\r\n    function addCharity( address _charity , string memory _charityName ) public onlyOwner {\r\n        require(!charities[_charity], \"This charity already exist!\");\r\n        \r\n            charities[_charity] = true;\r\n            charitiesNames[_charity] = _charityName;\r\n            uint charitiesIndex = numberOfCharities++;\r\n            lutCharities[charitiesIndex] = _charity;\r\n            lutCharitiesNames[charitiesIndex] = _charityName;\r\n            charitiesMatchedAmount[_charity] = 0;\r\n            donations[_charity] = 0;\r\n            totalDonationsByCharity[_charity] = 0;\r\n            \r\n    }\r\n\r\n    // The donation function\r\n    function donate(address _charity) public payable {\r\n        require(charities[_charity], \"Invalid charity address.\");\r\n        require(msg.value > 0, \"Donation amount must be greater than 0.\" );\r\n        uint matchedAmount = msg.value;\r\n        charitiesMatchedAmount[_charity] += matchedAmount;\r\n        if (!Donors[msg.sender]){\r\n            uint DonorsIndex = numberOfDonors++;\r\n            Donors[msg.sender]=true;\r\n            lutDonors[DonorsIndex]=msg.sender;\r\n             totalDonationsByDonor[msg.sender] = 0;\r\n        }\r\n        donations[_charity] += msg.value;\r\n        totalDonationsByDonor[msg.sender] += msg.value;\r\n        totalDonationsByCharity[_charity] += msg.value;\r\n    }\r\n\r\n    //Show all the amounts the contract's owner need to match \r\n    function getAllCharitiesAndMatchedAmount() public view returns(address[] memory,uint[] memory ,uint  ) {\r\n        address[] memory _Charities = new address[](numberOfCharities);\r\n        uint[] memory _MatchedAmounts = new uint[](numberOfCharities);\r\n        uint  _SumMatchedAmounts = 0;\r\n        for(uint i=0; i<numberOfCharities; i++){\r\n            _Charities[i]=lutCharities[i];\r\n            _MatchedAmounts[i]=charitiesMatchedAmount[lutCharities[i]];\r\n            _SumMatchedAmounts += charitiesMatchedAmount[lutCharities[i]];\r\n        }\r\n        return (_Charities,_MatchedAmounts , _SumMatchedAmounts );\r\n    }\r\n\r\n    //Function for the contract's owner to pay all matched amounts\r\n    function matchTheDonations() public payable onlyOwner {\r\n        for(uint i=0; i<numberOfCharities; i++){\r\n            donations[lutCharities[i]] += charitiesMatchedAmount[lutCharities[i]];\r\n            totalDonationsByCharity[lutCharities[i]] += charitiesMatchedAmount[lutCharities[i]];\r\n            charitiesMatchedAmount[lutCharities[i]] = 0;\r\n        }\r\n    }\r\n\r\n    //Show all charities\r\n    function getAllCharities() public view returns(address[] memory , string[] memory ) {\r\n        address[] memory _Charities = new address[](numberOfCharities);\r\n        string[] memory  _CharitiesNames = new string[](numberOfCharities);\r\n        for(uint i=0; i<numberOfCharities; i++){\r\n            _Charities[i]=lutCharities[i];\r\n             _CharitiesNames[i] = lutCharitiesNames[i];\r\n        }\r\n        return (_Charities, _CharitiesNames );    \r\n    }\r\n    \r\n    //Shows all donors\r\n    function getAllDonors() public view returns(address[] memory) {\r\n        address[] memory _Donors = new address[](numberOfDonors);\r\n        for(uint i=0; i<numberOfDonors; i++){\r\n            _Donors[i]=lutDonors[i];\r\n        }\r\n        return _Donors;\r\n    }\r\n\r\n    //Shows all donors and their donations\r\n    function getAllDonorsAndDonations() public view returns(address[] memory,uint[] memory) {\r\n        address[] memory _Donors = new address[](numberOfDonors);\r\n        uint[] memory _Donations = new uint[](numberOfDonors);\r\n        for(uint i=0; i<numberOfDonors; i++){\r\n            _Donors[i]=lutDonors[i];\r\n            _Donations[i]=totalDonationsByDonor[lutDonors[i]];\r\n        }\r\n        return (_Donors,_Donations );\r\n    }\r\n\r\n    //Shows all charities and their current donation balance\r\n    function getAllCharitiesAndDonations() public view returns(address[] memory,uint[] memory) {\r\n        address[] memory _Charities = new address[](numberOfCharities);\r\n        uint[] memory _Donations = new uint[](numberOfCharities);\r\n        for(uint i=0; i<numberOfCharities; i++){\r\n            _Charities[i]=lutCharities[i];\r\n            _Donations[i]=donations[lutCharities[i]];\r\n        }\r\n        return (_Charities,_Donations);\r\n    }\r\n\r\n    //Shows all charities and their total donation balance ever\r\n     function getAllCharitiesAndTotalDonationsByCharity() public view returns(address[] memory,uint[] memory) {\r\n        address[] memory _Charities = new address[](numberOfCharities);\r\n        uint[] memory _TotalDonationsByCharity = new uint[](numberOfCharities);\r\n        for(uint i=0; i<numberOfCharities; i++){\r\n            _Charities[i]=lutCharities[i];\r\n            _TotalDonationsByCharity[i]=totalDonationsByCharity[lutCharities[i]];\r\n        }\r\n        return (_Charities,_TotalDonationsByCharity);\r\n    }\r\n\r\n    //Withdraw function for the charities to withdraw all their current donations\r\n    function withdraw() public {\r\n        require(charities[msg.sender] = true, \"You are not one of the charities.\");\r\n        uint amount = donations[msg.sender];\r\n        require(amount > 0, \"No funds available for withdrawal.\");\r\n        donations[msg.sender] = 0;\r\n        payable(msg.sender).transfer(amount);\r\n    }\r\n\r\n\r\n}\r\n\r\n\r\n// const instance = await CharityDonation.deployed()\r\n// instance.addCharity(\"0x197455e3eEf7dA7302ac524a97e3Ca041cEd154D\",\"Moses's Charity\") \r\n// instance.getAllCharities()",
  "sourcePath": "C:\\Users\\Almog Yosef Zamir\\Desktop\\  \\Codes Folder\\donations_react\\contracts\\CharityDonation.sol",
  "compiler": {
    "name": "solc",
    "version": "0.8.17+commit.8df45f5f.Emscripten.clang"
  },
  "schemaVersion": "3.4.11",
  "updatedAt": "2023-04-07T05:25:25.847Z",
  "networkType": "ethereum",
  "devdoc": {
    "kind": "dev",
    "methods": {},
    "version": 1
  },
  "userdoc": {
    "kind": "user",
    "methods": {},
    "version": 1
  }
}