{
  "contractName": "CharityDonation",
  "abi": [
    {
      "inputs": [],
      "stateMutability": "nonpayable",
      "type": "constructor"
    },
    {
      "inputs": [
        {
          "internalType": "address",
          "name": "",
          "type": "address"
        }
      ],
      "name": "Donors",
      "outputs": [
        {
          "internalType": "bool",
          "name": "",
          "type": "bool"
        }
      ],
      "stateMutability": "view",
      "type": "function",
      "constant": true
    },
    {
      "inputs": [
        {
          "internalType": "address",
          "name": "",
          "type": "address"
        }
      ],
      "name": "charities",
      "outputs": [
        {
          "internalType": "bool",
          "name": "",
          "type": "bool"
        }
      ],
      "stateMutability": "view",
      "type": "function",
      "constant": true
    },
    {
      "inputs": [
        {
          "internalType": "address",
          "name": "",
          "type": "address"
        }
      ],
      "name": "charitiesMatchedAmount",
      "outputs": [
        {
          "internalType": "uint256",
          "name": "",
          "type": "uint256"
        }
      ],
      "stateMutability": "view",
      "type": "function",
      "constant": true
    },
    {
      "inputs": [],
      "name": "contractOwner",
      "outputs": [
        {
          "internalType": "address payable",
          "name": "",
          "type": "address"
        }
      ],
      "stateMutability": "view",
      "type": "function",
      "constant": true
    },
    {
      "inputs": [
        {
          "internalType": "address",
          "name": "",
          "type": "address"
        }
      ],
      "name": "donations",
      "outputs": [
        {
          "internalType": "uint256",
          "name": "",
          "type": "uint256"
        }
      ],
      "stateMutability": "view",
      "type": "function",
      "constant": true
    },
    {
      "inputs": [],
      "name": "numberOfCharities",
      "outputs": [
        {
          "internalType": "uint256",
          "name": "",
          "type": "uint256"
        }
      ],
      "stateMutability": "view",
      "type": "function",
      "constant": true
    },
    {
      "inputs": [],
      "name": "numberOfDonors",
      "outputs": [
        {
          "internalType": "uint256",
          "name": "",
          "type": "uint256"
        }
      ],
      "stateMutability": "view",
      "type": "function",
      "constant": true
    },
    {
      "inputs": [
        {
          "internalType": "address",
          "name": "",
          "type": "address"
        }
      ],
      "name": "totalDonationsByCharity",
      "outputs": [
        {
          "internalType": "uint256",
          "name": "",
          "type": "uint256"
        }
      ],
      "stateMutability": "view",
      "type": "function",
      "constant": true
    },
    {
      "inputs": [
        {
          "internalType": "address",
          "name": "",
          "type": "address"
        }
      ],
      "name": "totalDonationsByDonor",
      "outputs": [
        {
          "internalType": "uint256",
          "name": "",
          "type": "uint256"
        }
      ],
      "stateMutability": "view",
      "type": "function",
      "constant": true
    },
    {
      "inputs": [
        {
          "internalType": "address",
          "name": "newOwner",
          "type": "address"
        }
      ],
      "name": "transferOwnership",
      "outputs": [],
      "stateMutability": "nonpayable",
      "type": "function"
    },
    {
      "inputs": [
        {
          "internalType": "address",
          "name": "_charity",
          "type": "address"
        }
      ],
      "name": "addCharity",
      "outputs": [],
      "stateMutability": "nonpayable",
      "type": "function"
    },
    {
      "inputs": [
        {
          "internalType": "address",
          "name": "_charity",
          "type": "address"
        }
      ],
      "name": "donate",
      "outputs": [],
      "stateMutability": "payable",
      "type": "function",
      "payable": true
    },
    {
      "inputs": [],
      "name": "getAllCharitiesAndMatchedAmount",
      "outputs": [
        {
          "internalType": "address[]",
          "name": "",
          "type": "address[]"
        },
        {
          "internalType": "uint256[]",
          "name": "",
          "type": "uint256[]"
        }
      ],
      "stateMutability": "view",
      "type": "function",
      "constant": true
    },
    {
      "inputs": [],
      "name": "matchTheDonations",
      "outputs": [],
      "stateMutability": "payable",
      "type": "function",
      "payable": true
    },
    {
      "inputs": [],
      "name": "getAllCharities",
      "outputs": [
        {
          "internalType": "address[]",
          "name": "",
          "type": "address[]"
        }
      ],
      "stateMutability": "view",
      "type": "function",
      "constant": true
    },
    {
      "inputs": [],
      "name": "getAllDonors",
      "outputs": [
        {
          "internalType": "address[]",
          "name": "",
          "type": "address[]"
        }
      ],
      "stateMutability": "view",
      "type": "function",
      "constant": true
    },
    {
      "inputs": [],
      "name": "getAllDonorsAndDonations",
      "outputs": [
        {
          "internalType": "address[]",
          "name": "",
          "type": "address[]"
        },
        {
          "internalType": "uint256[]",
          "name": "",
          "type": "uint256[]"
        }
      ],
      "stateMutability": "view",
      "type": "function",
      "constant": true
    },
    {
      "inputs": [],
      "name": "getAllCharitiesAndDonations",
      "outputs": [
        {
          "internalType": "address[]",
          "name": "",
          "type": "address[]"
        },
        {
          "internalType": "uint256[]",
          "name": "",
          "type": "uint256[]"
        }
      ],
      "stateMutability": "view",
      "type": "function",
      "constant": true
    },
    {
      "inputs": [],
      "name": "getAllCharitiesAndTotalDonationsByCharity",
      "outputs": [
        {
          "internalType": "address[]",
          "name": "",
          "type": "address[]"
        },
        {
          "internalType": "uint256[]",
          "name": "",
          "type": "uint256[]"
        }
      ],
      "stateMutability": "view",
      "type": "function",
      "constant": true
    },
    {
      "inputs": [],
      "name": "withdraw",
      "outputs": [],
      "stateMutability": "nonpayable",
      "type": "function"
    }
  ],
  "bytecode": "0x608060405234801561001057600080fd5b50336000806101000a81548173ffffffffffffffffffffffffffffffffffffffff021916908373ffffffffffffffffffffffffffffffffffffffff160217905550612266806100606000396000f3fe60806040526004361061011e5760003560e01c806398e36b04116100a0578063b5bbd27911610064578063b5bbd279146103ae578063cc6cb19a146103d9578063ce606ee014610416578063f2fde38b14610441578063f9d482901461046a5761011e565b806398e36b04146102e45780639c08038f1461030f5780639c239d691461033b578063a0f73def14610378578063afb3ae32146103825761011e565b80633ccfd60b116100e75780633ccfd60b1461021057806364b2e2d9146102275780636fd094f41461025257806378b14f0a1461028f5780639280e6b1146102b85761011e565b8062362a951461012357806315c0fb431461013f5780632478239a1461016b5780632503c960146101a8578063303f0acb146101e5575b600080fd5b61013d60048036038101906101389190611a96565b6104a7565b005b34801561014b57600080fd5b506101546107ef565b604051610162929190611c49565b60405180910390f35b34801561017757600080fd5b50610192600480360381019061018d9190611a96565b6109d0565b60405161019f9190611c9b565b60405180910390f35b3480156101b457600080fd5b506101cf60048036038101906101ca9190611a96565b6109f0565b6040516101dc9190611cc5565b60405180910390f35b3480156101f157600080fd5b506101fa610a08565b6040516102079190611cc5565b60405180910390f35b34801561021c57600080fd5b50610225610a0e565b005b34801561023357600080fd5b5061023c610bba565b6040516102499190611cc5565b60405180910390f35b34801561025e57600080fd5b5061027960048036038101906102749190611a96565b610bc0565b6040516102869190611c9b565b60405180910390f35b34801561029b57600080fd5b506102b660048036038101906102b19190611a96565b610be0565b005b3480156102c457600080fd5b506102cd610d7c565b6040516102db929190611c49565b60405180910390f35b3480156102f057600080fd5b506102f9610f5d565b6040516103069190611ce0565b60405180910390f35b34801561031b57600080fd5b50610324611057565b604051610332929190611c49565b60405180910390f35b34801561034757600080fd5b50610362600480360381019061035d9190611a96565b611238565b60405161036f9190611cc5565b60405180910390f35b610380611250565b005b34801561038e57600080fd5b50610397611633565b6040516103a5929190611c49565b60405180910390f35b3480156103ba57600080fd5b506103c3611814565b6040516103d09190611ce0565b60405180910390f35b3480156103e557600080fd5b5061040060048036038101906103fb9190611a96565b61190e565b60405161040d9190611cc5565b60405180910390f35b34801561042257600080fd5b5061042b611926565b6040516104389190611d23565b60405180910390f35b34801561044d57600080fd5b5061046860048036038101906104639190611a96565b61194a565b005b34801561047657600080fd5b50610491600480360381019061048c9190611a96565b611a1b565b60405161049e9190611cc5565b60405180910390f35b600260008273ffffffffffffffffffffffffffffffffffffffff1673ffffffffffffffffffffffffffffffffffffffff16815260200190815260200160002060009054906101000a900460ff16610533576040517f08c379a000000000000000000000000000000000000000000000000000000000815260040161052a90611d9b565b60405180910390fd5b60003411610576576040517f08c379a000000000000000000000000000000000000000000000000000000000815260040161056d90611e2d565b60405180910390fd5b600034905080600860008473ffffffffffffffffffffffffffffffffffffffff1673ffffffffffffffffffffffffffffffffffffffff16815260200190815260200160002060008282546105ca9190611e7c565b92505081905550600460003373ffffffffffffffffffffffffffffffffffffffff1673ffffffffffffffffffffffffffffffffffffffff16815260200190815260200160002060009054906101000a900460ff166106e95760006009600081548092919061063790611eb0565b9190505590506001600460003373ffffffffffffffffffffffffffffffffffffffff1673ffffffffffffffffffffffffffffffffffffffff16815260200190815260200160002060006101000a81548160ff021916908315150217905550336005600083815260200190815260200160002060006101000a81548173ffffffffffffffffffffffffffffffffffffffff021916908373ffffffffffffffffffffffffffffffffffffffff160217905550505b34600160008473ffffffffffffffffffffffffffffffffffffffff1673ffffffffffffffffffffffffffffffffffffffff16815260200190815260200160002060008282546107389190611e7c565b9250508190555034600660003373ffffffffffffffffffffffffffffffffffffffff1673ffffffffffffffffffffffffffffffffffffffff168152602001908152602001600020600082825461078e9190611e7c565b9250508190555034600760008473ffffffffffffffffffffffffffffffffffffffff1673ffffffffffffffffffffffffffffffffffffffff16815260200190815260200160002060008282546107e49190611e7c565b925050819055505050565b6060806000600a5467ffffffffffffffff8111156108105761080f611ef8565b5b60405190808252806020026020018201604052801561083e5781602001602082028036833780820191505090505b5090506000600a5467ffffffffffffffff81111561085f5761085e611ef8565b5b60405190808252806020026020018201604052801561088d5781602001602082028036833780820191505090505b50905060005b600a548110156109c3576003600082815260200190815260200160002060009054906101000a900473ffffffffffffffffffffffffffffffffffffffff168382815181106108e4576108e3611f27565b5b602002602001019073ffffffffffffffffffffffffffffffffffffffff16908173ffffffffffffffffffffffffffffffffffffffff1681525050600860006003600084815260200190815260200160002060009054906101000a900473ffffffffffffffffffffffffffffffffffffffff1673ffffffffffffffffffffffffffffffffffffffff1673ffffffffffffffffffffffffffffffffffffffff168152602001908152602001600020548282815181106109a4576109a3611f27565b5b60200260200101818152505080806109bb90611eb0565b915050610893565b5081819350935050509091565b60026020528060005260406000206000915054906101000a900460ff1681565b60076020528060005260406000206000915090505481565b600a5481565b6001600260003373ffffffffffffffffffffffffffffffffffffffff1673ffffffffffffffffffffffffffffffffffffffff16815260200190815260200160002060006101000a81548160ff0219169083151502179055610aa4576040517f08c379a0000000000000000000000000000000000000000000000000000000008152600401610a9b90611fc8565b60405180910390fd5b6000600160003373ffffffffffffffffffffffffffffffffffffffff1673ffffffffffffffffffffffffffffffffffffffff16815260200190815260200160002054905060008111610b2b576040517f08c379a0000000000000000000000000000000000000000000000000000000008152600401610b229061205a565b60405180910390fd5b6000600160003373ffffffffffffffffffffffffffffffffffffffff1673ffffffffffffffffffffffffffffffffffffffff168152602001908152602001600020819055503373ffffffffffffffffffffffffffffffffffffffff166108fc829081150290604051600060405180830381858888f19350505050158015610bb6573d6000803e3d6000fd5b5050565b60095481565b60046020528060005260406000206000915054906101000a900460ff1681565b60008054906101000a900473ffffffffffffffffffffffffffffffffffffffff1673ffffffffffffffffffffffffffffffffffffffff163373ffffffffffffffffffffffffffffffffffffffff1614610c6e576040517f08c379a0000000000000000000000000000000000000000000000000000000008152600401610c65906120ec565b60405180910390fd5b6001600260008373ffffffffffffffffffffffffffffffffffffffff1673ffffffffffffffffffffffffffffffffffffffff16815260200190815260200160002060006101000a81548160ff0219169083151502179055506000600a6000815480929190610cdb90611eb0565b919050559050816003600083815260200190815260200160002060006101000a81548173ffffffffffffffffffffffffffffffffffffffff021916908373ffffffffffffffffffffffffffffffffffffffff1602179055506000600860008473ffffffffffffffffffffffffffffffffffffffff1673ffffffffffffffffffffffffffffffffffffffff168152602001908152602001600020819055505050565b6060806000600a5467ffffffffffffffff811115610d9d57610d9c611ef8565b5b604051908082528060200260200182016040528015610dcb5781602001602082028036833780820191505090505b5090506000600a5467ffffffffffffffff811115610dec57610deb611ef8565b5b604051908082528060200260200182016040528015610e1a5781602001602082028036833780820191505090505b50905060005b600a54811015610f50576003600082815260200190815260200160002060009054906101000a900473ffffffffffffffffffffffffffffffffffffffff16838281518110610e7157610e70611f27565b5b602002602001019073ffffffffffffffffffffffffffffffffffffffff16908173ffffffffffffffffffffffffffffffffffffffff1681525050600760006003600084815260200190815260200160002060009054906101000a900473ffffffffffffffffffffffffffffffffffffffff1673ffffffffffffffffffffffffffffffffffffffff1673ffffffffffffffffffffffffffffffffffffffff16815260200190815260200160002054828281518110610f3157610f30611f27565b5b6020026020010181815250508080610f4890611eb0565b915050610e20565b5081819350935050509091565b6060600060095467ffffffffffffffff811115610f7d57610f7c611ef8565b5b604051908082528060200260200182016040528015610fab5781602001602082028036833780820191505090505b50905060005b60095481101561104f576005600082815260200190815260200160002060009054906101000a900473ffffffffffffffffffffffffffffffffffffffff1682828151811061100257611001611f27565b5b602002602001019073ffffffffffffffffffffffffffffffffffffffff16908173ffffffffffffffffffffffffffffffffffffffff1681525050808061104790611eb0565b915050610fb1565b508091505090565b606080600060095467ffffffffffffffff81111561107857611077611ef8565b5b6040519080825280602002602001820160405280156110a65781602001602082028036833780820191505090505b509050600060095467ffffffffffffffff8111156110c7576110c6611ef8565b5b6040519080825280602002602001820160405280156110f55781602001602082028036833780820191505090505b50905060005b60095481101561122b576005600082815260200190815260200160002060009054906101000a900473ffffffffffffffffffffffffffffffffffffffff1683828151811061114c5761114b611f27565b5b602002602001019073ffffffffffffffffffffffffffffffffffffffff16908173ffffffffffffffffffffffffffffffffffffffff1681525050600660006005600084815260200190815260200160002060009054906101000a900473ffffffffffffffffffffffffffffffffffffffff1673ffffffffffffffffffffffffffffffffffffffff1673ffffffffffffffffffffffffffffffffffffffff1681526020019081526020016000205482828151811061120c5761120b611f27565b5b602002602001018181525050808061122390611eb0565b9150506110fb565b5081819350935050509091565b60066020528060005260406000206000915090505481565b60008054906101000a900473ffffffffffffffffffffffffffffffffffffffff1673ffffffffffffffffffffffffffffffffffffffff163373ffffffffffffffffffffffffffffffffffffffff16146112de576040517f08c379a00000000000000000000000000000000000000000000000000000000081526004016112d5906120ec565b60405180910390fd5b6000805b600a548110156115ed57600860006003600084815260200190815260200160002060009054906101000a900473ffffffffffffffffffffffffffffffffffffffff1673ffffffffffffffffffffffffffffffffffffffff1673ffffffffffffffffffffffffffffffffffffffff16815260200190815260200160002054600160006003600085815260200190815260200160002060009054906101000a900473ffffffffffffffffffffffffffffffffffffffff1673ffffffffffffffffffffffffffffffffffffffff1673ffffffffffffffffffffffffffffffffffffffff16815260200190815260200160002060008282546113e09190611e7c565b92505081905550600860006003600084815260200190815260200160002060009054906101000a900473ffffffffffffffffffffffffffffffffffffffff1673ffffffffffffffffffffffffffffffffffffffff1673ffffffffffffffffffffffffffffffffffffffff16815260200190815260200160002054600760006003600085815260200190815260200160002060009054906101000a900473ffffffffffffffffffffffffffffffffffffffff1673ffffffffffffffffffffffffffffffffffffffff1673ffffffffffffffffffffffffffffffffffffffff16815260200190815260200160002060008282546114db9190611e7c565b92505081905550600860006003600084815260200190815260200160002060009054906101000a900473ffffffffffffffffffffffffffffffffffffffff1673ffffffffffffffffffffffffffffffffffffffff1673ffffffffffffffffffffffffffffffffffffffff16815260200190815260200160002054826115609190611e7c565b91506000600860006003600085815260200190815260200160002060009054906101000a900473ffffffffffffffffffffffffffffffffffffffff1673ffffffffffffffffffffffffffffffffffffffff1673ffffffffffffffffffffffffffffffffffffffff1681526020019081526020016000208190555080806115e590611eb0565b9150506112e2565b50803414611630576040517f08c379a00000000000000000000000000000000000000000000000000000000081526004016116279061217e565b60405180910390fd5b50565b6060806000600a5467ffffffffffffffff81111561165457611653611ef8565b5b6040519080825280602002602001820160405280156116825781602001602082028036833780820191505090505b5090506000600a5467ffffffffffffffff8111156116a3576116a2611ef8565b5b6040519080825280602002602001820160405280156116d15781602001602082028036833780820191505090505b50905060005b600a54811015611807576003600082815260200190815260200160002060009054906101000a900473ffffffffffffffffffffffffffffffffffffffff1683828151811061172857611727611f27565b5b602002602001019073ffffffffffffffffffffffffffffffffffffffff16908173ffffffffffffffffffffffffffffffffffffffff1681525050600160006003600084815260200190815260200160002060009054906101000a900473ffffffffffffffffffffffffffffffffffffffff1673ffffffffffffffffffffffffffffffffffffffff1673ffffffffffffffffffffffffffffffffffffffff168152602001908152602001600020548282815181106117e8576117e7611f27565b5b60200260200101818152505080806117ff90611eb0565b9150506116d7565b5081819350935050509091565b60606000600a5467ffffffffffffffff81111561183457611833611ef8565b5b6040519080825280602002602001820160405280156118625781602001602082028036833780820191505090505b50905060005b600a54811015611906576003600082815260200190815260200160002060009054906101000a900473ffffffffffffffffffffffffffffffffffffffff168282815181106118b9576118b8611f27565b5b602002602001019073ffffffffffffffffffffffffffffffffffffffff16908173ffffffffffffffffffffffffffffffffffffffff168152505080806118fe90611eb0565b915050611868565b508091505090565b60016020528060005260406000206000915090505481565b60008054906101000a900473ffffffffffffffffffffffffffffffffffffffff1681565b60008054906101000a900473ffffffffffffffffffffffffffffffffffffffff1673ffffffffffffffffffffffffffffffffffffffff163373ffffffffffffffffffffffffffffffffffffffff16146119d8576040517f08c379a00000000000000000000000000000000000000000000000000000000081526004016119cf90612210565b60405180910390fd5b806000806101000a81548173ffffffffffffffffffffffffffffffffffffffff021916908373ffffffffffffffffffffffffffffffffffffffff16021790555050565b60086020528060005260406000206000915090505481565b600080fd5b600073ffffffffffffffffffffffffffffffffffffffff82169050919050565b6000611a6382611a38565b9050919050565b611a7381611a58565b8114611a7e57600080fd5b50565b600081359050611a9081611a6a565b92915050565b600060208284031215611aac57611aab611a33565b5b6000611aba84828501611a81565b91505092915050565b600081519050919050565b600082825260208201905092915050565b6000819050602082019050919050565b611af881611a58565b82525050565b6000611b0a8383611aef565b60208301905092915050565b6000602082019050919050565b6000611b2e82611ac3565b611b388185611ace565b9350611b4383611adf565b8060005b83811015611b74578151611b5b8882611afe565b9750611b6683611b16565b925050600181019050611b47565b5085935050505092915050565b600081519050919050565b600082825260208201905092915050565b6000819050602082019050919050565b6000819050919050565b611bc081611bad565b82525050565b6000611bd28383611bb7565b60208301905092915050565b6000602082019050919050565b6000611bf682611b81565b611c008185611b8c565b9350611c0b83611b9d565b8060005b83811015611c3c578151611c238882611bc6565b9750611c2e83611bde565b925050600181019050611c0f565b5085935050505092915050565b60006040820190508181036000830152611c638185611b23565b90508181036020830152611c778184611beb565b90509392505050565b60008115159050919050565b611c9581611c80565b82525050565b6000602082019050611cb06000830184611c8c565b92915050565b611cbf81611bad565b82525050565b6000602082019050611cda6000830184611cb6565b92915050565b60006020820190508181036000830152611cfa8184611b23565b905092915050565b6000611d0d82611a38565b9050919050565b611d1d81611d02565b82525050565b6000602082019050611d386000830184611d14565b92915050565b600082825260208201905092915050565b7f496e76616c6964206368617269747920616464726573732e0000000000000000600082015250565b6000611d85601883611d3e565b9150611d9082611d4f565b602082019050919050565b60006020820190508181036000830152611db481611d78565b9050919050565b7f446f6e6174696f6e20616d6f756e74206d75737420626520677265617465722060008201527f7468616e20302e00000000000000000000000000000000000000000000000000602082015250565b6000611e17602783611d3e565b9150611e2282611dbb565b604082019050919050565b60006020820190508181036000830152611e4681611e0a565b9050919050565b7f4e487b7100000000000000000000000000000000000000000000000000000000600052601160045260246000fd5b6000611e8782611bad565b9150611e9283611bad565b9250828201905080821115611eaa57611ea9611e4d565b5b92915050565b6000611ebb82611bad565b91507fffffffffffffffffffffffffffffffffffffffffffffffffffffffffffffffff8203611eed57611eec611e4d565b5b600182019050919050565b7f4e487b7100000000000000000000000000000000000000000000000000000000600052604160045260246000fd5b7f4e487b7100000000000000000000000000000000000000000000000000000000600052603260045260246000fd5b7f596f7520617265206e6f74206f6e65206f66207468652063686172697469657360008201527f2e00000000000000000000000000000000000000000000000000000000000000602082015250565b6000611fb2602183611d3e565b9150611fbd82611f56565b604082019050919050565b60006020820190508181036000830152611fe181611fa5565b9050919050565b7f4e6f2066756e647320617661696c61626c6520666f722077697468647261776160008201527f6c2e000000000000000000000000000000000000000000000000000000000000602082015250565b6000612044602283611d3e565b915061204f82611fe8565b604082019050919050565b6000602082019050818103600083015261207381612037565b9050919050565b7f4f6e6c792074686520636f6e7472616374206f776e65722063616e206164642060008201527f6368617269746965732e00000000000000000000000000000000000000000000602082015250565b60006120d6602a83611d3e565b91506120e18261207a565b604082019050919050565b60006020820190508181036000830152612105816120c9565b9050919050565b7f5468652065786163746c79206d61746368656420616d6f756e74206e6565642060008201527f746f2062652064656c69766572642e0000000000000000000000000000000000602082015250565b6000612168602f83611d3e565b91506121738261210c565b604082019050919050565b600060208201905081810360008301526121978161215b565b9050919050565b7f4f6e6c792074686520636f6e7472616374206f776e65722063616e206368616e60008201527f67652074686520636f6e7472616374206f776e65722e00000000000000000000602082015250565b60006121fa603683611d3e565b91506122058261219e565b604082019050919050565b60006020820190508181036000830152612229816121ed565b905091905056fea26469706673582212209fdf5b3d4d5a91f83a178f7ac1884d6848c36f43ae87e737bbd331064e53a30564736f6c63430008110033",
  "immutableReferences": {},
  "source": "// SPDX-License-Identifier: MIT\r\npragma solidity ^0.8.0;\r\n\r\ncontract CharityDonation {\r\n    address payable public contractOwner;\r\n    mapping(address => uint) public donations;\r\n    mapping(address => bool) public charities;\r\n    mapping(uint => address) private lutCharities;\r\n    mapping(address => bool) public Donors;\r\n    mapping(uint => address) private lutDonors;\r\n    mapping(address => uint) public totalDonationsByDonor;\r\n    mapping(address => uint) public totalDonationsByCharity;\r\n    mapping(address => uint) public charitiesMatchedAmount;\r\n    uint public numberOfDonors;\r\n    uint public numberOfCharities;\r\n\r\n    constructor() {\r\n        contractOwner = payable(msg.sender); \r\n    }\r\n\r\n    function transferOwnership(address newOwner) external {\r\n        require(msg.sender == contractOwner, \"Only the contract owner can change the contract owner.\");\r\n        contractOwner = payable(newOwner);\r\n    }\r\n\r\n    function addCharity(address _charity) public {\r\n        require(msg.sender == contractOwner, \"Only the contract owner can add charities.\");\r\n        charities[_charity] = true;\r\n        uint charitiesIndex = numberOfCharities++;\r\n        lutCharities[charitiesIndex]=_charity;\r\n        charitiesMatchedAmount[_charity] = 0;\r\n    }\r\n\r\n    // The donation function\r\n    function donate(address _charity) public payable {\r\n        require(charities[_charity], \"Invalid charity address.\");\r\n        require(msg.value > 0, \"Donation amount must be greater than 0.\");\r\n        uint matchedAmount = msg.value;\r\n        charitiesMatchedAmount[_charity] += matchedAmount;\r\n        if (!Donors[msg.sender]){\r\n            uint fundersIndex = numberOfDonors++;\r\n            Donors[msg.sender]=true;\r\n            lutDonors[fundersIndex]=msg.sender;\r\n        }\r\n        donations[_charity] += msg.value;\r\n        totalDonationsByDonor[msg.sender] += msg.value;\r\n        totalDonationsByCharity[_charity] += msg.value;\r\n    }\r\n\r\n    //Show all the amount (split by charities) the contract's owner need to match \r\n    function getAllCharitiesAndMatchedAmount() public view returns(address[] memory,uint[] memory) {\r\n        address[] memory _Charities = new address[](numberOfCharities);\r\n        uint[] memory _MatchedAmounts = new uint[](numberOfCharities);\r\n        for(uint i=0; i<numberOfCharities; i++){\r\n            _Charities[i]=lutCharities[i];\r\n            _MatchedAmounts[i]=charitiesMatchedAmount[lutCharities[i]];\r\n        }\r\n        return (_Charities,_MatchedAmounts );\r\n    }\r\n\r\n    //Function for the contract's owner to pay all matched amounts\r\n    function matchTheDonations() public payable {\r\n        require(msg.sender == contractOwner, \"Only the contract owner can add charities.\");\r\n        uint sumOfMatchedAmount=0;\r\n        for(uint i=0; i<numberOfCharities; i++){\r\n            donations[lutCharities[i]] += charitiesMatchedAmount[lutCharities[i]];\r\n            totalDonationsByCharity[lutCharities[i]] += charitiesMatchedAmount[lutCharities[i]];\r\n            sumOfMatchedAmount += charitiesMatchedAmount[lutCharities[i]];\r\n            charitiesMatchedAmount[lutCharities[i]] = 0;\r\n        }\r\n        require(msg.value == sumOfMatchedAmount, \"The exactly matched amount need to be deliverd.\");\r\n    }\r\n\r\n    //Show all charities\r\n    function getAllCharities() public view returns(address[] memory) {\r\n        address[] memory _Charities = new address[](numberOfCharities);\r\n        for(uint i=0; i<numberOfCharities; i++){\r\n            _Charities[i]=lutCharities[i];\r\n        }\r\n        return _Charities;\r\n    }\r\n    \r\n    //Shows all donors\r\n    function getAllDonors() public view returns(address[] memory) {\r\n        address[] memory _Donors = new address[](numberOfDonors);\r\n        for(uint i=0; i<numberOfDonors; i++){\r\n            _Donors[i]=lutDonors[i];\r\n        }\r\n        return _Donors;\r\n    }\r\n\r\n    //Shows all donors and their donations\r\n    function getAllDonorsAndDonations() public view returns(address[] memory,uint[] memory) {\r\n        address[] memory _Donors = new address[](numberOfDonors);\r\n        uint[] memory _Donations = new uint[](numberOfDonors);\r\n        for(uint i=0; i<numberOfDonors; i++){\r\n            _Donors[i]=lutDonors[i];\r\n            _Donations[i]=totalDonationsByDonor[lutDonors[i]];\r\n        }\r\n        return (_Donors,_Donations );\r\n    }\r\n\r\n    //Shows all charities and their current donation balance\r\n    function getAllCharitiesAndDonations() public view returns(address[] memory,uint[] memory) {\r\n        address[] memory _Charities = new address[](numberOfCharities);\r\n        uint[] memory _Donations = new uint[](numberOfCharities);\r\n        for(uint i=0; i<numberOfCharities; i++){\r\n            _Charities[i]=lutCharities[i];\r\n            _Donations[i]=donations[lutCharities[i]];\r\n        }\r\n        return (_Charities,_Donations);\r\n    }\r\n\r\n    //Shows all charities and their total donation balance ever\r\n     function getAllCharitiesAndTotalDonationsByCharity() public view returns(address[] memory,uint[] memory) {\r\n        address[] memory _Charities = new address[](numberOfCharities);\r\n        uint[] memory _TotalDonationsByCharity = new uint[](numberOfCharities);\r\n        for(uint i=0; i<numberOfCharities; i++){\r\n            _Charities[i]=lutCharities[i];\r\n            _TotalDonationsByCharity[i]=totalDonationsByCharity[lutCharities[i]];\r\n        }\r\n        return (_Charities,_TotalDonationsByCharity);\r\n    }\r\n\r\n    //Withdraw function for the charities to withdraw all their current donations\r\n    function withdraw() public {\r\n        require(charities[msg.sender] = true, \"You are not one of the charities.\");\r\n        uint amount = donations[msg.sender];\r\n        require(amount > 0, \"No funds available for withdrawal.\");\r\n        donations[msg.sender] = 0;\r\n        payable(msg.sender).transfer(amount);\r\n    }\r\n\r\n\r\n}\r\n",
  "sourcePath": "C:\\Users\\Almog Yosef Zamir\\Desktop\\  \\Codes Folder\\donations_react\\contracts\\CharityDonation.sol",
  "compiler": {
    "name": "solc",
    "version": "0.8.17+commit.8df45f5f.Emscripten.clang"
  },
  "schemaVersion": "3.4.11",
  "updatedAt": "2023-03-13T19:19:17.620Z",
  "networkType": "ethereum",
  "devdoc": {
    "kind": "dev",
    "methods": {},
    "version": 1
  },
  "userdoc": {
    "kind": "user",
    "methods": {},
    "version": 1
  }
}